:020000003BC102
:10000200FECFFDCFFCCFFBCFFACFF9CFF8CFF7CFA2
:100012005EC1F5CFF4CFF3CFF2CFF1CFF0CFEFCF78
:10002200EECFEDCF050720600000000000000004C5
:100032000A040007000700147F147F14242A7F2A71
:10004200122313086462364955225000050300004A
:10005200001C2241000041221C00082A1C2A080818
:10006200083E080800503000000808080808003060
:1000720030000020100804023E5149453E00427FF4
:10008200400042615149462141454B311814127FCB
:100092001027454545393C4A494930017109050354
:1000A2003649494936064949291E003636000000BC
:1000B200563600000008142241141414141441226C
:1000C2001408000201510906324979413E7E11119C
:1000D200117E7F494949363E414141227F414122B9
:1000E2001C7F494949417F090901013E4141513281
:1000F2007F0808087F00417F41002040413F017F87
:10010200081422417F404040407F0204027F7F0466
:1001120008107F3E4141413E7F090909063E415197
:10012200215E7F09192946464949493101017F016A
:10013200013F4040403F1F2040201F7F2018207F6A
:1001420063140814630304780403615149454300AE
:10015200007F4141020408102041417F0000040257
:100162000102044040404040000102040020545477
:1001720054787F48444438384444442038444448FE
:100182007F3854545418087E090102081454543C10
:100192007F0804047800447D40002040443D000074
:1001A2007F10284400417F40007C041804787C08BA
:1001B20004047838444444387C1414140808141491
:1001C200187C7C080404084854545420043F4440DA
:1001D200203C4040207C1C2040201C3C4030403CC5
:1001E20044281028440C5050503C4464544C440061
:1001F2000836410000007F0000004136080002017D
:100202000204027F4141417F1027E80364000A0093
:1002120001000010000110000100000103070F1F80
:100222003F7FFF0000B5526F626F74696300464FF3
:1002320052007374617274657273004449592D4897
:100242005553000001002D4E414E00494E4600001C
:10025200020004002602080060012802040068016E
:10026200300209006C013402080075013D020100F0
:10027200320446020000F894EE27ECBBF1E0FBBF2B
:10028200EBBFE5BF8DE0A2E0BB27ED938A95E9F7CE
:1002920080E094E0A0E6ED930197E9F7E2E5F2E071
:1002A20085919591009761F0A591B5910590159072
:1002B200BF01F00105900D920197E1F7FB01F0CF2C
:1002C200EFE5EDBFE4E0EEBFC0E6D1E07BC1EA932B
:1002D200EFB7EA93ECE9E2BF4394E8ECE41509F4E2
:1002E2004424471410F4909A01C09098E991EFBF0A
:1002F200E99118952897E7ECE7BBE0E0E8BBE0E27C
:10030200E4BBE0E0E5BBE9E7E1BBEEEFE2BBE2E044
:10031200E3BFECE9E2BFE1EAEFBDEBE0EEBDE0E016
:10032200EDBDECBDE7BDE6BDEBBDEABDE9BDE8BD97
:10033200E2BDE5BDE4BDE3BDE1E0E9BFE0E0E5BF6C
:10034200EAB9E0E8E8B9E0E0E0BFE6B9EDB9E6BF56
:10035200E6E2F0E0E883F983E0E0EA83EB83EC8312
:10036200ED83EE81EC7FEE83E37EEC60EE83EF8142
:10037200E078E263EF83DE01D1D17894EAE07E2E69
:10038200C4D5C6D5A0E6B1E002D5ECE1EA93ADE072
:100392000DD5A8E6B1E0FBD4E3E2EA93A8E106D5E5
:1003A200ACE6B1E0F4D4E9E1EA93A8E2FFD4A5E730
:1003B200B1E0EDD4A8EEB3E09FD6E7C4ABD510E030
:1003C200183088F4E981E07811F4969801C0969A81
:1003D200A4D5E981EE0FE983A4D5A981EA2BE983AB
:1003E20093981F5FEDCFE98118812FC5D7D610E012
:1003F20000E0083038F491D5110F93D51E2B939855
:100402000F5FF7CFE12F099119910895949A88E728
:1004120095E00197F1F79498959A089588D58FD52C
:1004220014C585D591D590D58FD58ED588D50DC5D6
:10043200AA939598E981E062AE2F88D587D586D5B3
:1004420085D5BCDF81D57BD500C5AA9395987CD58F
:1004520076D5D3C1AA939598E3E0EA93A3E0DEDFD1
:100462006ED59598EAE0EA93AC81DBDF72D5AC8178
:10047200D8DFEBE0EA93AB81DBDF6BD5AB81D8DF72
:10048200ECE06AD5D5DF65D5AA81D2DFEDE0EA934B
:10049200A981CEDF5ED5A981CBDF35C536D5AFE1E7
:1004A200BDDF949A0895A2EED0DF8BE18A95F1F731
:1004B2002CD5AFE1B3DFE7E0EA93AAE7AFDFEDE1E6
:1004C200EA93A4E0ABDFECE14AD5E5E0EA93A2E0EF
:1004D200A5DF5A926A929A92A82DBCDFE2E03FD53C
:1004E200E1E03DD5E4E03ED599DF0895949827D523
:1004F2009598A1E663DF8BE18A95F1F777DFF0E06B
:10050200E0933002F093310271DFA2E3B2E02DD525
:10051200A4E3B2E02AD5A6E3B2E0F0E0ED93FC93C7
:10052200959A949AE7E0EA93AEE778DFA2EE8DDF40
:100532000895AA93EA81F0E0E130A0E0FA07A9F475
:1005420018D549F416D511F4C09801C0C09A14D533
:10055200FBBDEABD22C00DD511F4C09801C0C09AFE
:100562000BD50DD5FBBDEABD18C0E230A0E0FA07FD
:10057200A1F4FFD449F4FDD411F4C69801C0C69A7F
:10058200FBD4F9BDE8BD09C0F4D411F4C69801C08A
:10059200C69AF2D4F4D4F9BDE8BD98C4AA93F5D4AE
:1005A200E1E0DAD4C6DFF4D4B0D4AA81C2DF25C137
:1005B200AA93EBD4AAD4AA81EED4EAD4E1E0CCD4B3
:1005C200EAD41BC197DE6FDF21DFE2D4E1E0CAD4B7
:1005D200B0DFDBD4E1E0C6D4ACDF97D499D4ACE28F
:1005E200B1E08AD50CD1AD98E0E17E2E57DF879934
:1005F20044C0C79B02C0C79801C0C79A00D176DF2A
:1006020084D486D4E0913002F0913102C8D4E4E17E
:10061200EA937ED4E0913202F0913302C0D475D4D1
:10062200A4E1C4D3E0913402F0913502B8D4E4E1FC
:10063200EA93A4E1BBD3E0913602F0913702AFD442
:10064200B6D4A038E0E0BE0741F4A2D45ED4A0E064
:1006520070DF9BD4E1E086D46CDFA9D4A138E0E05E
:10066200BE071CF0A091300299DFA1D4A038E0E0CF
:10067200BE071CF4A09130029BDFB8CFFFCF0895D4
:1006820049D4A99818E0FBDFE981E07811F0AB9A30
:1006920001C0AB98E981EE0FE983F1DFAC9AEFDF9D
:1006A200AC98115081F7A99A1881CFC3AA93AA983E
:1006B200A881E6DFA2C0AA93AA9AA881E1DF9DC021
:1006C20029D4E98179D41E2FE4E5E19FF001DF010D
:1006D200EA8176D4E0933802F0933902E12F18814F
:1006E200F5C3AA93E981E0686FD4E981EA93A9810D
:1006F200E7DFE06469D4A9C3AA93E981EA93A981F7
:10070200F0DFE0913802F091390260D4E0819DC3BC
:10071200AA935FD4A881A083CEDF6FC063D43CD5F7
:10072200A19AA99AA49AAC98A39AA29AA09AA898D4
:10073200AAE0B0E0E1D4A89A58D43097E1F055D4B9
:10074200E681E3701E2F51D4E681E695E695E770C7
:100752000E2F4BD4E781EF773E2FAC81BD81EED4D3
:1007620047D4AC81BD811296E9D447D4AC81BD8116
:100772001496E4D408C010E003E032E343D438D442
:1007820041D43BD43FD4E0939801F0939901A1E284
:100792008DDFE12FE46018D4E02FE06115D4E32F60
:1007A200E06812D4A0E282DFA1E01FD0E1E0E09392
:1007B2007D01E0E0E0937E01E1E0E0938301E093DC
:1007C2008401E0938501EFEFE0938601E1E0E0939D
:1007D2008D01EEE8F1E019D4EFEFEA93A8E0B0E082
:1007E2001ED30DD0E1E0DFD456C0AA93E881E030F9
:1007F20011F0ECE001C0E8E0E7D321960895CCD4F3
:1008020030E0E0917E01E03009F03FEF7ED3A0E0DE
:1008120068DF08EF11E0F80101501040309719F03D
:10082200A32F76DFF8CF71D373D3BDD46CC372D349
:10083200ED81EA93AD8160DF1E2FE981E73011F08F
:10084200E83029F4EB8188D302D3EB8308C0E3308C
:1008520021F4EB81E095EB8302C0E03021F4EA81E0
:10086200E0951E2302C0E23029F4EA81AB81EA233B
:100872001E2B0EC0E13029F4EA81AB81EA231E2748
:1008820007C0E43029F4EA81E095AB81EA2B1E230C
:10089200A12F3EDF188126960895AA9323977AD432
:1008A200A889A43548F4AF85A03330F4AE85A030D2
:1008B20019F0AD85A03009F488C1EE85E887A889D2
:1008C200BB27EE85A5D3A535E0E0BE0720F0A889B9
:1008D200E4E5EA1BEE872D85AF85BB27ED8598D32E
:1008E200D19720F0AF85E0E3EA1BED87A985A6301A
:1008F20009F054C0EC85E13009F467C1E33039F402
:10090200E0919801F0919901309709F45EC1088550
:10091200ED8552D33E2FE22FE77019F4AD852A17E9
:10092200D9F0A02FBB27E32F77D3AA85BB85EA0F87
:10093200FB1F75D3269526952695532F5F935F5FF0
:10094200E22FAF91EA1740F0102FE12F1150E03063
:1009520011F068D3FACFF2CFAE850A17F9F0EE851F
:10096200AA85BB852DD35BD3ED85E77009F03F5F88
:1009720020E02F932F5FE32FAF91AE1778F41E85FF
:100982001F931F5FE02FAF91AE1710F44BD3F8CF38
:10099200EE85AE81BF8114D342D3EBCFEF85E770F2
:1009A2003E2FED85E03009F410C1EA85FB8537D38F
:1009B20010E00889303009F059C0AD85A83008F43C
:1009C20050C0E985E03011F0E33009F402C0E730AD
:1009D20009F402C0E83009F402C0E93009F402C0A7
:1009E200EA3019F42AD37DDE04C0E63011F425D3AF
:1009F20067DE1F9325D3AF91AE1760F5A985A630A8
:100A020031F421D302D3E5D2A08162D222C0E9859A
:100A1200E93011F450E00CC0EA3011F45FEF08C085
:100A220012D31AD35E2FE985E73011F0E83019F4BA
:100A320018D35E2F06C0E33011F4509502C0E030A7
:100A420019F4A52F38DE05C00FD3EFEFEA93AD8579
:100A5200EEDECFCFEF85E85FEF87ED85E850ED87DB
:100A6200ADC05D8520E0E0E0ED8767C0E32FAD8596
:100A7200AE0FA93020F42D85E0E0ED8703C0E8E059
:100A8200E31B2E2F3A93A22FD9D14E2FE985E630C0
:100A9200B9F4D3D215DE1F93D3D2AF91AE1778F447
:100AA20098D2E081E423AE2FE32F38D3E3D2E32FB1
:100AB200A42F34D3E9D2A9D2A52F0AD2ECCF22C0D7
:100AC200E93011F450E003C0EA3089F45FEFC9D293
:100AD200AE2FE32F1BD35E2F1F93B2D2AF91AE176F
:100AE20028F4C2D24A93A0E0A2DEF6CF0BC01F9335
:100AF200A7D2AF91AE1730F4CBD2AE2FE32F06D3ED
:100B0200D4D2F5CFED85E03009F45FC0AD85A830D1
:100B120028F4ED85E21B5E2FE0E003C0532FED8544
:100B2200E850ED8710E0EF85E85FEF87E8E0E31B30
:100B32002E2F0889EA85FB8572D2E52FF0E0E45E6C
:100B4200FD4F4491E985E630B9F477D2B9DD1F93C0
:100B520077D2AF91AE1778F43CD2E081E423AE2F86
:100B6200E22FD4D287D2E22FA42FD0D28DD24DD26F
:100B7200A52FAED1ECCF22C0E93011F450E003C072
:100B8200EA3089F45FEF6DD2AE2FE22FC7D25E2F2B
:100B92001F9356D2AF91AE1728F466D24A93A0E0C3
:100BA20046DEF6CF0BC01F934BD2AF91AE1730F497
:100BB2006FD2AE2FE22FB2D278D2F5CFE885AA85D6
:100BC200BB85FED1EA87FB87ECCEEBD26196089516
:100BD20070D214F017D239C171D2A435E0E0BE0749
:100BE2001CF0E3E5F0E031C1E881F9812EC161D268
:100BF20014F008D22AC162D2D0971CF0EFE2F0E0E2
:100C020024C1E881F98121C1EDD123975AD28F0104
:100C1200002E012A11F4F6D152C059D20F8257D2B6
:100C22000E8255D20886EB85A885EA1710F4EAD120
:100C320046C0F8010F5F1F4F5491A885BB27EE27CE
:100C4200A50FBE1FEB85F0E0EA17FB0710F0DAD123
:100C520036C0EE81B1D14E2FEE81E77009F04F5FC1
:100C6200EF81E03081F0A985BA85EC93A885EB8508
:100C7200EA1BF0E0DF01EF81CFD1DF01E42FCCD11D
:100C8200E00FF11F1CC09801E52FF0E00E0F1F1FAF
:100C9200A885AF5FA887A150EB85AE1750F4F90184
:100CA2002F5F3F4FA491B0E0E42FB6D10E0F1F1F6C
:100CB200EFCFF901E491A985BA85EC93F80171D2DD
:100CC2002C960895E0E0E0937F01A0918001BB277C
:100CD20003D29ED1E09184019BD189DFE093800110
:100CE2000895AA932197EDD1309709F44BC0AF81B3
:100CF200AA3009F445C0EF81EA93DE01179684DF3A
:100D0200AF01309709F440C0E0918301AE81EA0F50
:100D12003E2FA0917F01BB2753D18F010535E0E023
:100D22001E0718F0032F1127CDDFE0917F01DBD1E1
:100D3200E885EA93D1D1EA9328D15A934A93A7E05E
:100D4200ACDDE0917F01AE81EA0FCDD1E09183016C
:100D5200EA93C2D1EA93D9D0CBD1E0917F01EA9351
:100D6200A0918001B9D1EA0FEA933A93E09184010C
:100D7200EA93CBD0BDD1E4E5F0E0E017F10711F43E
:100D8200A1DF02C000937F010CD2289608952AD1D8
:100D92001A93A981BA81ED91A983BA831E2FE030FB
:100DA20019F0A12F9EDFF5CF188190C0AA93A981D7
:100DB200BB270EDFE0937F01A881BB2718DFE093FA
:100DC200800143C00FD1A991B991E991F99130966F
:100DD2002AF4E095F09531966DE26D93E89480E106
:100DE20097E20DD088EE93E00AD084E6992707D0E7
:100DF2008AE005D06E2F10D066276C93089566277F
:100E0200E817F90720F06395E81BF90BC9F7662389
:100E120011F416F008956894605D6D930895E2D020
:100E2200B981A881109631F0FC81EB816A816193CE
:100E32001197E9F7EB81FC8125960895AA939CD03E
:100E4200E45EFD4FA491E98161D12296089562D0BA
:100E5200E981E73011F0EA3019F410917D0109C0FF
:100E6200E93019F410917E0104C0E830A1F4109128
:100E72008D01E0917E01E03049F0103019F0EFEF82
:100E8200188124C0EA81E095188120C0103019F43D
:100E9200E0E018811BC0EA81188118C0A3D0EA8162
:100EA200E13021F4E881F981E49110C0E23019F4D3
:100EB20005D14FD10BC0E33039F400D1E091960156
:100EC200F0919701099502C0F9D0EC91239608950B
:100ED200AA93EB81E03029F4E881A981BA81EC93ED
:100EE20012C0E23029F4E881A981BA813ED10BC057
:100EF200E33049F4E981FA8188D0AA81E09198012E
:100F0200F0919901099524960895E0E0EA930895F5
:100F1200A0E04CCFAA931A9308958DE08A95F1F739
:100F22000895939AFADFE0E08299E1E00895AA93A6
:100F32009598E981E062AE2F41DAA8813FCA959A7D
:100F42008BE18A95F1F70895A88138CA37DAA8E4C7
:100F52000895E0E1EA930895EA93AA810895EA9355
:100F6200AFE05CCAEA93A0E00895F0E0ED93FC9351
:100F72003DCAE981E0300895E881F0E00895AFEFDD
:100F8200B0E0E0D0EA1BFB0B0895E1E0EA9308959C
:100F9200E2E0EA930895EFEFEA1BAE2FCACAFA9392
:100FA200EA93AAE9B1E00EDFAAE9B1E0F0CEA0919E
:100FB2003002B09131020895E695E695E6950895DE
:100FC200F0E0EA0FFB1F0895AE2F70CBE65CFD4FF9
:100FD2000895A8E3B2E0ED91FD913196FE93EE9370
:100FE2003197F4CFBA93AA930895EC81FD810895C5
:100FF200E0938101F09382010895E0939601F093CA
:1010020097010895E0E0F0E00895FA93EA930895D5
:10101200F0E0AE0FBF1F0895F0E088D00895EE8390
:10102200FF830895EC85EA93EF81F8853196EF838B
:10103200F8873197EADFA0E04BCF0A93A889089599
:101042001F5FEE850895EC85EA93EF81F88531966E
:10105200EF83F8873197089566277727DF01CB0161
:101062001DCF5A93AA85F3CE0A930395E889EA9392
:101072005A9308955E2FEC85EA93AF81B88588274D
:1010820099270CDF1E2E0895E095E1215E2BDBCF20
:101092000A930395E889EA93EE85EA93E985FA854E
:1010A2003196E987FA873197D7CFEA934A93AD858C
:1010B200BECB98DFA881B98169D00895A881B98192
:1010C200089568D0E0918101F09182010895F801BC
:1010D2000F5F1F4F04900895E0918101F09182010A
:1010E2003196E4910895EA93E0918001EA9308959C
:1010F20089DF8BDFA9E0D1CB109639F080ED97E044
:101102000197F1F7A8951197C9F70895EE230E2ECE
:10111200EA2F19F0EE0F0A94E9F70895EE230E2E46
:10112200EA2F19F0E6950A94E9F70895FA9FF02D4F
:10113200EB9FF00DEA9FE02DF10D0895ED91FC91EA
:10114200119708951B2EBF2FF12D1A2EAE2FE12DD0
:101152000895E199FECFFF93FFB7F894AEBBBFBBF2
:10116200E09AEDB3FFBFFF910895E19B02C0A895FD
:10117200FCCF9FB7F894AEBBBFBBE09A8DB3E81724
:1011820019F0EDBBE29AE19A9FBF089500240A1676
:101192000B0608955A934A933A932A931A930A9301
:1011A20008955D814C813B812A81198108810895CE
:00000001FF
