:080000000C9442000C94000076
:100008000C9400000C9400000C9400000C948300E5
:100018000C9400000C9400000C9400000C94000058
:100028000C9400000C946E000C9400000C940000DA
:100038000C9400000C9400000C9400000C94000038
:100048000C9400000C9400000C9400001027E803A6
:1000580064000A000100001000011000010000B552
:10006800000001002D4E414E00494E46000004009C
:100078000400660001006C026A000000F894EE2794
:10008800ECBBF1E0F5BFE5BF8DE0A2E0BB27ED9347
:100098008A95E9F780E098E0A0E6ED930197E9F703
:1000A800E6E7F0E085919591009761F0A591B5910B
:1000B80005901590BF01F00105900D920197E1F7A9
:1000C800FB01F0CFEFE5EDBFE8E0EEBFC0E6D2E020
:1000D8000C943402EA93EFB7EA93ECE9E2BF439455
:1000E800E8ECE41509F44424461410F4C19A01C05C
:1000F800C1987D1410F4929A01C092982AC0EA938C
:10010800EFB7EA93ECE9E4BD7394E8ECE71509F47A
:100118007724491410F4C29A01C0C298481410F404
:10012800C49A01C0C4984B1410F4909A01C09098D6
:100138007A1410F4919A01C091987C1410F4939A4F
:1001480001C09398E09160027E1610F4969A01C05F
:100158009698E991EFBFE9911895ECE3EABBE0E8DE
:10016800EBBBE6E0E7BBE0E0E8BBE6ECE4BBE7ECD2
:10017800E5BBE4E7E1BBE0E0E2BBE2E0E3BFECE9DA
:10018800E2BFE0E0ECBFE2EAEFBDEBE0EEBDE0E0AD
:10019800EDBDECBDE7BDE6BDEBBDEABDE9BDE8BD23
:1001A800E2BDE2E0E5BDECE9E4BDE0E0E3BDE1E4A9
:1001B800E9BFE0E0E5BFE4BFE0E8E8B9E0E0E0BFC0
:1001C800E6B9EDB9E6BF78940895AA93EA81F0E01C
:1001D800E130A0E0FA07C1F4E981E03051F4E03001
:1001E80011F4DC9801C0DC9AE881F0E0FBBDEABDBF
:1001F80026C0E981E03011F4DC9801C0DC9A0E9445
:100208000C03FBBDEABD1BC0E230A0E0FA07B9F45D
:10021800E981E03051F4E03011F4DD9801C0DD9A55
:10022800E881F0E0F9BDE8BD0AC0E981E03011F4E9
:10023800DD9801C0DD9A0E940C03F9BDE8BD239644
:100248000895E1E00E941503E2E00E941503089575
:10025800BA93AA93E1E00E941B03E2E00E941B0309
:100268006EC0BA93AA93E1E00E942403E2E00E94E0
:10027800240365C0BA9ABC9A889A899A8A9A8B9AF2
:100288008E9A0895929AE0E1DE2EA8E5B2E00E94E7
:100298005703E7E0DE2E0895AA931A9310E018306A
:1002A800A0F4E981E07811F4AF9801C0AF9A8DE02D
:1002B8008A95F1F7E981EE0FE9830E942A03A98163
:1002C800EA2BE983A9981F5FEACFE981188137C033
:1002D8001A930A9310E000E0083050F48DE08A95F4
:1002E800F1F7110F0E942A031E2BA9980F5FF4CF74
:1002F800E12F099119910895AA9A88E795E0019745
:10030800F1F7AA98AE9A08950E94320315C00E9488
:100318003203C2DFA881C0DFA881BEDFA881BCDFAD
:10032800A8810AC00E943203B7DFA8E4B5DFA8E4B9
:10033800B3DFA8E4B1DFA8E4AFDF0E943803229658
:100348000895AA93AE980E94380321960895AA9317
:10035800AE98E3E0EA93A3E0D7DFAE9A8BE18A9503
:10036800F1F7AE98EAE0EA93AC81D1DFE0E1EA93F5
:10037800AC81CDDFEBE0EA93AB810E944003AB8117
:10038800D1DFECE0EA93AA810E944003AA81CADF88
:10039800EDE0EA93A9810E944003A981C3DF249676
:1003A8000895E0E0EA93AFE1AFDFAA9A0895A2EEDC
:1003B800C8DF8BE18A95F1F7E0E0EA93AFE1A4DFCB
:1003C800E7E0EA93AAE7A0DFEDE1EA93A4E09CDF87
:1003D800ECE10E944503E5E0EA93A2E095DF5A923A
:1003E800E0916902EA93E0916A02EA93A0916B02B4
:1003F800AEDFE2E00E944503E1E00E944503E4E04D
:10040800EA93A0E081DF0895AA98AE9A8BE18A95D5
:10041800F1F7AE98A1E640DF8BE18A95F1F758DF56
:10042800F0E0E0936102F093620252DFA3E6B2E0EB
:10043800F0E0ED93FC934CDFA5E6B2E0F0E0ED933D
:10044800FC9346DFA7E6B2E0F0E0ED93FC93AE9AAA
:10045800AA9AE7E0EA93AEE757DFA2EE72DF0895C3
:100468007CDE08DFA4EFB1E00E94570345DF9FDF81
:1004780098DFE0E16E2E95DFCF99C8C0DB9B02C004
:10048800DB9801C0DB9AC0DF0E944903A038E0E096
:10049800BE0709F4D6DE0E944903A138E0E0BE0792
:1004A8001CF00E944903DDDE0E944903A038E0E009
:1004B800BE071CF40E944903CBDE0E944E03A038FD
:1004C800E0E0BE0711F4E0E16E2E0E944E03E0E882
:1004D800F0E00E945303E4E9F0E00E946103E021A8
:1004E80011F0E1E16E2E0E944E03E5E9F0E00E9472
:1004F8005303EAEAF0E00E946103E02111F0E2E12F
:100508006E2E0E944E03EBEAF0E00E945303EEEBDE
:10051800F0E00E946103E02111F0E3E16E2E0E94F9
:100528004E03EFEBF0E00E945303E2EDF0E00E948F
:100538006103E02111F0E4E16E2E0E944E03E3ED29
:10054800F0E00E945303E6EEF0E00E946103E02130
:1005580011F0E5E16E2E0E944E03A73EE0E0BE07D3
:1005680014F0E6E16E2E0E944E03EFE6F0E00E94E2
:100578005303EFE7F0E00E946103E02111F0EFE0A0
:100588006E2E0E944E03EBE5F0E00E945303EEE668
:10059800F0E00E946103E02111F0EEE06E2E0E946F
:1005A8004E03E7E4F0E00E945303EAE5F0E00E941E
:1005B8006103E02111F0EDE06E2E0E944E03E3E3AB
:1005C800F0E00E945303E6E4F0E00E946103E021BA
:1005D80011F0ECE06E2E0E944E03E5E1F0E00E947F
:1005E8005303E2E3F0E00E946103E02111F0EBE045
:1005F8006E2E0E944E03559714F4EAE06E2EA091D9
:100608006702B0916802119709F43CDE34CFFFCF3E
:10061800E881F0E0AFEFB0E00E946D03EA1BFB0B4E
:100628000895EA93E0E0EA93A0E00C94E900EA93E5
:10063800E1E0EA93AA81EFEFEA1BAE2F0C94E90000
:10064800EA93E0E0EA93AA810C94E900A99A8DE084
:100658008A95F1F7E0E09899E1E00895AA93AE98B9
:10066800E981E062AE2F0895A8810E945001AE9AF8
:100678008BE18A95F1F708950E949601E0E1EA93EB
:100688000895EA93AFE00C948801A0916102B091BB
:1006980062020895A0916302B091640208950E94D5
:1006A80067030E2EF7CF109639F080ED97E001978B
:1006B800F1F7A8951197C9F70895EA17FB07E1E044
:1006C8000CF4EE270895AE17BF07E1E00CF4EE270F
:1006D80008951B2EBF2FF12D1A2EAE2FE12D089550
:00000001FF
