:0800000024C09CC1FDCFFCCF20
:10000800FBCFFACFF9CFF8CFF7CF92C0F5CFF4CF27
:10001800F3CFF2CFF1CFF0CFEFCFEECFEDCF102768
:10002800E80364000A00010000100001100001004C
:10003800B5000000000000000000090005003800BD
:100048000000F894EE27ECBBF1E0FBBFEBBFE5BF87
:100058008DE0A2E0BB27ED938A95E9F780E094E074
:10006800A0E6ED930197E9F7E2E4F0E08591959138
:10007800009761F0A591B59105901590BF01F00129
:1000880005900D920197E1F7FB01F0CFEFE5EDBF89
:10009800E4E0EEBFC0E6D1E052C1AA9303D210E07B
:1000A800929A909A00E00830F8F4EA81E17011F42D
:1000B800929801C0929A85E88A95F1F7909885E818
:1000C8008A95F1F7E12FE6950E2EA0E08399A1E03D
:1000D800EA2FE795E0E0E795E0291E2F909AEA815C
:1000E800E695EA830F5FDFCF88EC90E00197F1F7A0
:1000F800E12FDBD123960895A7D1A2E4A8D1A7D1F7
:10010800CCDF8E2EA7D1BE2EA5D14E2EA3D17E2E0A
:10011800A1D16E2E9FD19E2E9298919A0895EFEFBD
:10012800BE2E8E2EE0E89E2E6E2E7E2E4E2E08952A
:100138000A921A92FA926A937A938A939A93AA9352
:10014800BA93EA93FA93EFB7EA93E0E9E2BFE1E002
:10015800EA1509F4D1DFE991EFBFF991E991B99175
:10016800A9919991899179916991F990199009903A
:1001780018956AD1A3E46BD190DFA1E014C064D1D3
:10018800A3E465D164D168D167D166D165D164D162
:100198000CC05AD1A4E45BD180DFA1E07EDFA3E0EC
:1001A80056D155D154D179DFA0E077DF9298A1E0FC
:1001B80056D1919AAAE053D10895AA931A9310E0C0
:1001C8001830C8F4E981E07811F4AB9801C0AB9A13
:1001D8008DE08A95F1F7E981EE0FE983AA9A8DE01F
:1001E8008A95F1F7E0E09C99E1E0A981EA2BE9839F
:1001F800AA981F5FE5CFE98118810FC0A89A88E700
:1002080095E00197F1F7A898A99A0895AA93A99853
:10021800E981E062AE2F25D127D122960895AA93CD
:10022800A998E3E0EA93A3E0F1DF1ED1A998AAE236
:1002380018D1A88116D1A88114D116D1A998A0E304
:1002480010D1A8810ED1A881B8DF2CC0E0E0EA93D4
:10025800AFE1DCDFA89A0895A898E0E0EA93AEE160
:100268001DC08BE18A95F1F7E0E0EA93AFE1CEDFBC
:10027800A2E0F5D0FED0EDE1EA93A4E0C7DFECE11F
:10028800FCD0E5E0EA93A2E0C1DFA52DC8DFE2E0FB
:10029800F4D0E1E0F2D0E4E0EA93A0E0B7DF08951B
:1002A800AA93A998A88189DFDFD021960895AA8505
:1002B800B6DFDAD0A998A1EE80DFD6D0A998A0EA57
:1002C800D0D0AA817ADFAC8178DFAE8176DFA99AB7
:1002D800A89A88EE93E00197F1F7A898CAD0A52DBF
:1002E8009EDFA1EEDDDF2B960895E0E0E8BBEFEF9F
:1002F800E7BBEFE3E5BBEFE0E4BBEFEFE2BBE7E032
:10030800E1BBE5E0E3BFE0E0E2BFE1E0E9BFE0E058
:10031800EAB9E0E8E8B9E0E0E0BFE6B9EDB9EBB783
:10032800E064EBBFE2E0E5BFE0E4EABFE0E0E6BF9F
:1003380078940895EA93E1E0DE2EE9911895D5DFE7
:10034800AA24EDDE5BDF8DDF81DFE9DE12DF21DF4E
:1003580016DFE1E0AE2E80DFE92DF0E0E0936001EA
:10036800F0936101A2E6B1E0E42DF0E0ED93FC9397
:1003780084FC03C0E1E0F0E011C087FC03C0E3E0C7
:10038800F0E00CC086FC03C0E2E0F0E007C085FCAA
:1003980003C0E4E0F0E002C0E0E0F0E0E0936401D4
:1003A800F0936501B4FC03C0E1E0F0E011C0B5FCD6
:1003B80003C0E4E0F0E00CC0B6FC03C0E2E0F0E00B
:1003C80007C0B7FC03C0E3E0F0E002C0E0E0F0E003
:1003D800E0936601F0936701B2FC03C0E1E0F0E04E
:1003E80025C0B3FC03C0E2E0F0E020C0B0FC03C0CD
:1003F800E3E0F0E01BC0B1FC03C0E4E0F0E016C0AD
:1004080080FC03C0E5E0F0E011C081FC03C0E6E039
:10041800F0E00CC082FC03C0E7E0F0E007C083FC1A
:1004280003C0E8E0F0E002C0E0E0F0E0E09368013B
:10043800F09369015A92E0E6F1E0AAE02BD037DFA9
:10044800A1E00DD088CFFFCF9198A1E026CE25DE80
:10045800A0E00895A0E021CE20DEAAE50895B0E04E
:100468000FC0ABDEA881A9CEA99A8BE18A95F1F7D6
:100478000895E7E0EA93AEE7C9CEEA93A1E0C6CED5
:10048800109639F080ED97E00197F1F7A89511974C
:10049800C9F70895BB27EA0FFB1F02900A9211972C
:1004A800E1F708951A930A93089519810881089528
:00000001FF
