:0600000024C09CC1FDCFED
:10000600FCCFFBCFFACFF9CFF8CFF7CF92C0F5CF21
:10001600F4CFF3CFF2CFF1CFF0CFEFCFEECFEDCFDE
:100026001027E80364000A00010000100001100018
:100036000100890000000000000000000900050022
:1000460038000000F894EE27ECBBF1E0FBBFEBBFF5
:10005600E5BF8DE0A2E0BB27ED938A95E9F780E046
:1000660094E0A0E6ED930197E9F7E2E4F0E08591EC
:100076009591009761F0A591B59105901590BF01F6
:10008600F00105900D920197E1F7FB01F0CFEFE546
:10009600EDBFE4E0EEBFC0E6D1E052C1AA9332D292
:1000A60010E0929A909A00E00830F8F4EA81E17044
:1000B60011F4929801C0929A85E88A95F1F7909882
:1000C60085E88A95F1F7E12FE6950E2EA0E0839953
:1000D600A1E0EA2FE795E0E0E795E0291E2F909A48
:1000E600EA81E695EA830F5FDFCF88EC90E001971F
:1000F600F1F7E12F0AD223960895C2D1A2E4C3D123
:10010600C2D1CCDF8E2EC2D1BE2EC0D14E2EBED1D4
:100116007E2EBCD16E2EBAD19E2E9298919A0895BB
:10012600EFEFBE2E8E2EE0E89E2E6E2E7E2E4E2EEB
:1001360008950A921A92FA926A937A938A939A93F4
:10014600AA93BA93EA93FA93EFB7EA93E0E9E2BF88
:10015600E1E0EA1509F4D1DFE991EFBFF991E99100
:10016600B991A9919991899179916991F99019908B
:100176000990189585D1A3E486D190DFA1E014C03B
:100186007FD1A3E480D17FD183D182D181D180D1A7
:100196007FD10CC075D1A4E476D180DFA1E07EDFEB
:1001A600A3E071D170D16FD179DFA0E077DF9298AB
:1001B600A1E071D1919AAAE06ED10895AA931A93FB
:1001C60010E01830C8F4E981E07811F4AB9801C06A
:1001D600AB9A8DE08A95F1F7E981EE0FE983AA9A49
:1001E6008DE08A95F1F7E0E09C99E1E0A981EA2BA0
:1001F600E983AA981F5FE5CFE98118810FC0A89A05
:1002060088E795E00197F1F7A898A99A0895AA9327
:10021600A998E981E062AE2F40D142D12296089595
:10022600AA93A998E3E0EA93A3E0F1DF39D1A9986C
:10023600AAE233D1A88131D1A8812FD131D1A99891
:10024600A0E32BD1A88129D1A881B8DF2CC0E0E09A
:10025600EA93AFE1DCDFA89A0895A898E0E0EA9374
:10026600AEE11DC08BE18A95F1F7E0E0EA93AFE1DC
:10027600CEDFA2E010D119D1EDE1EA93A4E0C7DF09
:10028600ECE117D1E5E0EA93A2E0C1DFA52DC8DFD6
:10029600E2E00FD1E1E00DD1E4E0EA93A0E0B7DFC0
:1002A6000895AA93A998A88189DFFAD0219608957E
:1002B600AA85B6DFF5D0A998A1EE80DFF1D0A9987E
:1002C600A0EAEBD0AA817ADFAC8178DFAE8176DF57
:1002D600A99AA89A88EE93E00197F1F7A898E5D035
:1002E600A52D9EDFA1EEDDDF2B960895E0E0E8BBAD
:1002F600EFEFE7BBEFE3E5BBEFE0E4BBEFEFE2BB1D
:10030600E7E0E1BBE5E0E3BFE0E0E2BFE1E0E9BF53
:10031600E0E0EAB9E0E8E8B9E0E0E0BFE6B9EDB967
:10032600EBB7E064EBBFE2E0E5BFE0E4EABFE0E0A4
:10033600E6BF78940895EA93E1E0DE2EE9911895F8
:10034600D5DFAA24EDDE5BDF8DDF81DFE9DE12DF9C
:1003560021DF16DFE1E0AE2E80DFE8E79E1618F417
:10036600ABD0ADD017C0E7E8E91518F4ADD0A7D0EB
:1003760011C0E8E76E1618F4AAD0A1D00BC0E7E8C2
:10038600E61518F4A7D09BD005C0E0E0E093600125
:10039600E0936101E8E77E1610F48ED010C0E7E81E
:1003A600E71510F491D00BC0E8E74E1610F48FD085
:1003B60006C0E7E8E41510F48DD001C08ED0E093B6
:1003C6006201F093630184FC02C076D00DC087FC05
:1003D60002C07DD009C086FC02C076D005C085FC6F
:1003E60002C078D001C079D0E0936401F093650132
:1003F600B4FC02C061D00DC0B5FC02C06BD009C010
:10040600B6FC02C061D005C0B7FC02C060D001C016
:1004160064D0E0936601F0936701B2FC02C04CD051
:1004260021C0B3FC02C050D01DC0B0FC02C04FD0EA
:1004360019C0B1FC02C04ED015C080FC03C0E5E077
:10044600F0E010C081FC03C0E6E0F0E00BC082FCE7
:1004560003C0E7E0F0E006C083FC03C0E8E0F0E09C
:1004660001C03BD0E0936801F09369015A92E0E63F
:10047600F1E0AAE03FD01CDFA1E00DD06DCFFFCFA9
:100486009198A1E00BCE0ADEA0E00895A0E006CE8A
:1004960005DEAAE50895B0E023C090DEA8818ECEE1
:1004A600A99A8BE18A95F1F70895E7E0EA93AEE71A
:1004B600AECEEA93A1E0ABCEE1E0F0E00895E093A2
:1004C6006001F09361010895E2E0F0E00895E3E051
:1004D600F0E00895E4E0F0E00895E0E0F0E008954B
:1004E600109639F080ED97E00197F1F7A8951197EE
:1004F600C9F70895BB27EA0FFB1F02900A921197CE
:10050600E1F708951A930A930895198108810895C9
:00000001FF
