:0200000021C01D
:1000020087C1FDCFFCCFFBCFFACFF9CFF8CFF7CF27
:1000120092C0F5CFF4CFF3CFF2CFF1CFF0CFEFCF45
:10002200EECFEDCF1027E80364000A0001000010B4
:100032000001100001009700000004000A003800CF
:100042000000F894EE27ECBBF1E0FBBFEBBFE5BF8D
:10005200F8E1F1BDE1BD8DE0A2E0BB27ED938A9509
:10006200E9F780E094E0A0E6ED930197E9F7ECE38D
:10007200F0E085919591009761F0A591B591059079
:100082001590BF01F00105900D920197E1F7FB0178
:10009200F0CFEFE5EDBFE4E0EEBFC0E6D1E03DC159
:1000A200AA93F8D110E0929A909A00E00830F8F4FE
:1000B200EA81E17011F4929801C0929A85E88A95DA
:1000C200F1F7909885E88A95F1F7E12FE6950E2EE3
:1000D200A0E08399A1E0EA2FE795E0E0E795E02927
:1000E2001E2F909AEA81E695EA830F5FDFCF88ECB4
:1000F20090E00197F1F7E12FD0D123960895A2D194
:10010200A2E4A3D1A2D1CCDF9E2EA2D18E2EA0D169
:100112005E2E9ED14E2E9CD17E2E9AD16E2E92981C
:10012200919A0895EFEF8E2E9E2EE0E86E2E7E2E8F
:100132004E2E5E2E08950A921A92FA926A937A933A
:100142008A939A93AA93BA93EA93FA93EFB7EA93AC
:10015200E0E9E2BFE1E0EB1509F4D1DFE991EFBF9D
:10016200F991E991B991A9919991899179916991BD
:10017200F99019900990189565D1A3E466D190DFA2
:10018200A1E014C05FD1A3E460D15FD163D162D199
:1001920061D160D15FD10CC055D1A4E456D180DFCA
:1001A200A1E07EDFA3E051D150D14FD179DFA0E0B1
:1001B20077DF9298A1E051D1919AAAE04ED10895A9
:1001C200AA931A9310E01830C8F4E981E07811F488
:1001D200AB9801C0AB9A8DE08A95F1F7E981EE0FF9
:1001E200E983AA9A8DE08A95F1F7E0E09C99E1E033
:1001F200A981EA2BE983AA981F5FE5CFE9811881DB
:1002020060C0A89A88E795E00197F1F7A898A99AA3
:100212000895AA93A998E981E062AE2F20D122D154
:1002220050C0AA93A998E3E0EA93A3E0F2DF1AD1BF
:10023200A998AAE214D11BD11AD114D1A998A0E38A
:100242000ED115D114D10ED121960895E0E0EA9392
:10025200AFE1DFDFA89A0895A898E0E0EA93AEE163
:1002620019C08BE18A95F1F7E0E0EA93AFE1D1DFC3
:10027200A2E0F3D0FED0E1E100D1E5E0EA93A2E012
:10028200C8DFAA2DCEDFE2E0F8D0E1E0F6D0E4E06C
:10029200EA93A0E0BEDF0895AA93A981C2DFE2D06B
:1002A200A998A1EE8DDFDED0A998A0EAD8D0A99AAC
:1002B200A89A88EE93E00197F1F7A898DAD0AA2DD0
:1002C200B0DF22960895E0E0E8BBEFEFE7BBEFE393
:1002D200E5BBEFE0E4BBEFEFE2BBE7E0E1BBE5E06B
:1002E200E3BFE0E0E2BFE1E0E9BFE0E0EAB9E0E875
:1002F200E8B9E0E0E0BFE6B9EDB9EBB7E064EBBF27
:10030200E2E0E5BFE0E4EABFE0E0E6BF789408950A
:10031200EA93E1E0DE2EE9911895D5DFBB2402DFF6
:1003220070DF9FDF93DFFEDE27DF36DF2BDFE1E0CA
:10033200BE2E92DFE0E56E1618F4E1E0CE2E7BC011
:10034200EAEAE61518F4E2E0CE2E75C0E0E57E1684
:1003520018F4E3E0CE2E6FC0EAEAE71518F4E4E001
:10036200CE2E69C0E0E54E1618F4E5E0CE2E63C04D
:10037200EAEAE41518F4E6E0CE2E5DC0E0E55E168A
:1003820018F4E7E0CE2E57C0EAEAE51518F4E8E0E3
:10039200CE2E51C094FC03C0E9E0CE2E4CC097FC97
:1003A20003C0EAE0CE2E47C096FC03C0EBE0CE2E9F
:1003B20042C095FC03C0ECE0CE2E3DC084FC03C0DD
:1003C200EDE0CE2E38C085FC03C0EEE0CE2E33C069
:1003D20086FC03C0EFE0CE2E2EC087FC03C0E0E116
:1003E200CE2E29C082FC03C0E1E1CE2E24C083FCC4
:1003F20003C0E2E1CE2E1FC080FC03C0E3E1CE2E9B
:100402001AC081FC03C0E4E1CE2E15C090FC03C0EB
:10041200E5E1CE2E10C091FC03C0E6E1CE2E0BC06A
:1004220092FC03C0E7E1CE2E06C093FC03C0E8E1D4
:10043200CE2E01C0CC24AA92AC2D2EDFA1E00DD08D
:1004420078CFFFCF9198A1E02BCE2ADEA0E00895CD
:10045200A0E026CE25DEAAE50895B0E011C0B0DE08
:10046200A881AECEA99A8BE18A95F1F70895A88169
:10047200F6CFE7E0EA93AEE7CCCEEA93A1E0C9CEAD
:10048200109639F080ED97E00197F1F7A895119752
:10049200C9F708951A930A93089519810881089556
:00000001FF
