:100000000C9473010C9400000C9400000C94A20159
:100010000C9400000C94E7010C9400000C94000078
:100020000C9400000C9400000C9400000C94B3019C
:100030000C9400000C9400000C9400000C94000040
:100040000C9400000C9400000C9400000C94000030
:100050000C94000005072060000000000000005F15
:1000600000000007000700147F147F14242A7F2A51
:10007000122313086462364955225000050300001C
:10008000001C2241000041221C00082A1C2A0808EA
:10009000083E080800503000000808080808003032
:1000A00030000020100804023E5149453E00427FC6
:1000B000400042615149462141454B311814127F9D
:1000C0001027454545393C4A494930017109050326
:1000D0003649494936064949291E0036360000008E
:1000E000563600000008142241141414141441223E
:1000F0001408000201510906324979413E7E11116E
:10010000117E7F494949363E414141227F4141228A
:100110001C7F494949417F090901013E4141513252
:100120007F0808087F00417F41002040413F017F58
:10013000081422417F404040407F0204027F7F0438
:1001400008107F3E4141413E7F090909063E415169
:10015000215E7F09192946464949493101017F013C
:10016000013F4040403F1F2040201F7F2018207F3C
:100170006314081463030478040361514945430080
:10018000007F4141020408102041417F0000040229
:100190000102044040404040000102040020545449
:1001A00054787F48444438384444442038444448D0
:1001B0007F3854545418087E090102081454543CE2
:1001C0007F0804047800447D40002040443D000046
:1001D0007F10284400417F40007C041804787C088C
:1001E00004047838444444387C1414140808141463
:1001F000187C7C080404084854545420043F4440AC
:10020000203C4040207C1C2040201C3C4030403C96
:1002100044281028440C5050503C4464544C440032
:100220000836410000007F0000004136080002014E
:100230000204027F4141417F1027E80364000A0065
:1002400001000010000110000100000103070F1F52
:100250003F7FFF008900526F626F74696300464FF1
:1002600052007374617274657273004449592D4869
:10027000555300415F4C3A00415F523A00445F4C95
:100280003A00445F523A002D2D204449592D4855DB
:1002900053202D2D000001002D4E414E00494E46A9
:1002A000000001000500540208006002560204002C
:1002B00068025E0209006C026202080075026B02AD
:1002C00005007D02730205008202780205008702A4
:1002D0007D0205008C0282020E009102870201005D
:1002E000640396020000F894EE27ECBBF1E0F5BF42
:1002F000E5BFF8E1F1BDE1BD8DE0A2E0BB27ED93E4
:100300008A95E9F780E098E0A0E6ED930197E9F798
:10031000E2EAF2E085919591009761F0A591B5919F
:1003200005901590BF01F00105900D920197E1F73E
:10033000FB01F0CFEFE5EDBFE8E0EEBFC0E6D2E0B5
:100340000C949D03AA93BA93EA93FA93EFB7EA93B6
:10035000A0ECB2E00E948B09E991EFBFF991E9911D
:10036000B991A99118950A921A92FA926A937A937E
:100370008A939A93AA93BA93EA93FA93EFB7EA937C
:10038000ECE9E2BFA091C202B091C302119789F4D7
:10039000F60131966F01C09B02C0C09801C0C09A9F
:1003A000C19B02C0C19801C0C19AA4E6B0E00E94FE
:1003B000530AE991EFBFF991E991B991A991999106
:1003C000899179916991F990199009901895EA931A
:1003D000FA93EFB7EA93ECE9E4BDF50131965F01DA
:1003E000E8ECF0E0EA15FB0511F4AA24BB24E09147
:1003F000BC02F091BD02AE16BF0614F4DC9A01C037
:10040000DC98E091BE02F091BF02AE16BF0614F474
:10041000DD9A01C0DD98E991EFBFF991E991189556
:100420002897ECEFEABBEFECEBBBEBE1E7BBE4E8D2
:10043000E8BBE0E6E4BBE0E4E5BBE0EFE1BBEFE016
:10044000E2BBE2E0E3BFECE9E2BFE0E0ECBFEFBD1E
:10045000EEBDEDBDECBDE7BDE6BDEBBDEABDE9BD62
:10046000E8BDE2BDE2E0E5BDECE9E4BDE0E0E3BD0E
:10047000E1E4E9BFEBB7E062EBBFE0E0E5BFE0E459
:10048000E4BFE0E2EABFE0E0EAB9E0E8E8B9E0E0D2
:10049000E0BFE6B9EDB9E6BFE4E5F0E0E883F98353
:1004A000E0E0EA83EB83EC83ED83EE81EC7FE160B7
:1004B000EE83E37EEC60EE83EF81E078E263EF832E
:1004C000DE010E941D0578940E949109A0E6B2E029
:1004D0000E94EE08ECE1EA93ADE00E94FE08A8E677
:1004E000B2E00E94EE08E3E2EA93A8E10E94FE086F
:1004F000ACE6B2E00E94EE08E9E1EA93A8E20E94CD
:10050000FE08A5E7B2E00E94EE08A8EEB3E00E9464
:10051000530A28960895AA931A9310E01830A0F46D
:10052000E981E07811F4DF9801C0DF9A8DE08A95C7
:10053000F1F7E981EE0FE9830E949609A981EA2B80
:10054000E983DA981F5FEACFE981188137C01A93EF
:100550000A9310E000E0083050F48DE08A95F1F73E
:10056000110F0E9496091E2BDA980F5FF4CFE12F2E
:10057000099119910895DB9A88E795E00197F1F7C1
:10058000DB98DE9A08950E949E0915C00E949E097C
:10059000C2DFA881C0DFA881BEDFA881BCDFA8813F
:1005A0000AC00E949E09B7DFA8E4B5DFA8E4B3DF64
:1005B000A8E4B1DFA8E4AFDF0E94A4092296089561
:1005C000AA93DE980E94A4090C94A405AA93DE982D
:1005D000E3E0EA93A3E0D7DFDE9A8BE18A95F1F7B7
:1005E000DE98EAE0EA93AC81D1DFE0E1EA93AC8106
:1005F000CDDFEBE0EA93AB810E94AC09AB81D1DFA8
:10060000ECE0EA93AA810E94AC09AA81CADFEDE07E
:10061000EA93A9810E94AC09A981C3DF24960895B9
:10062000E0E0EA93AFE1AFDFDB9A08958BE18A95D2
:10063000F1F7E0E0EA93AFE1A6DFE7E0EA93AAE7AB
:10064000A2DFEDE1EA93A4E09EDFECE10E94B109B4
:10065000E5E0EA93A2E097DF5A924A92E0916203C2
:10066000EA93A0916303B2DFE2E00E94B109E1E006
:100670000E94B109E4E0EA93A0E085DF0895DB98E9
:10068000DE9A8BE18A95F1F7DE98A1E644DF8BE1F3
:100690008A95F1F75CDFF0E0E0935A03F0935B0397
:1006A00056DFACE5B3E0F0E0ED93FC9350DFAEE550
:1006B000B3E0F0E0ED93FC934ADFA0E6B3E0F0E0B6
:1006C000ED93FC93DE9ADB9AE7E0EA93AEE75BDF1B
:1006D000A2EE76DF0895969A04C09698949A0895AB
:1006E000969894980895979A04C09798959A089523
:1006F000979895980895C398C49A0895C39A01C08D
:10070000C398C4980895E7DF0FC0E7DFA9E1B0E020
:100710000E94530AEADF0895DEDFE7DFA9E1B0E0D7
:100720000E94530A0895D9DFA9E1B0E00E94530A5C
:10073000DADF0895D5DFDCDF089572DE77DF1BDFB7
:10074000C098C19A0E9491090E94A605AD9880990F
:100750000AC0C19B02C0C19801C0C19AC09B02C01F
:10076000C09801C0C09A5CDFC899D7C088DF0E94DA
:100770009109ADE7B2E00E94EE08EEE10E94B509F2
:10078000E0915A03F0915B030E94B909EDE20E94E7
:10079000B509A2E8B2E00E94EE08EBE40E94B509B8
:1007A000E0915C03F0915D030E94B909E0E00E94D2
:1007B000C309A7E8B2E00E94EE08EEE10E94C30977
:1007C000E0915E03F0915F030E94B909EDE20E949F
:1007D000C309ACE8B2E00E94EE08EBE40E94C30952
:1007E000E0916003F09161030E94B909E0E0EA93AF
:1007F000A4E20E94FE08A1E9B2E00E94EE080E9475
:10080000C709119709F47FDF0E94C709129709F4FD
:100810007CDF0E94C709139709F47EDF0E94C70995
:10082000149709F480DFE0915A03F0915B0330974D
:1008300009F480DF0E94CC09119709F45CDF0E9463
:10084000CC09129709F45ADF0E94CC09139709F4D6
:1008500055DF0E94CC09149709F44DDFE0915C0349
:10086000F0915D03309709F44BDF0E94D109119795
:1008700021F4E9E0F0E00E94D6090E94D109129724
:1008800021F4EEE0F0E00E94D6090E94D10913970E
:1008900021F4E1E1F0E00E94D6090E94D109149709
:1008A00021F4E5E1F0E00E94D609E0915E03F091C9
:1008B0005F03309721F4E7E1F0E00E94D6090E943F
:1008C000DB09119721F4E9E0F0E00E94E0090E94C1
:1008D000DB09129721F4EDE0F0E00E94E0090E94AC
:1008E000DB09139721F4E0E1F0E00E94E0090E94A7
:1008F000DB09149721F4E4E1F0E00E94E009E091C3
:100900006003F0916103309721F4E7E1F0E00E9489
:10091000E009AAE0B0E00E94530A19CFFFCFBA93D2
:10092000AA93A991B991E991F99130962AF4E095A9
:10093000F09531966DE26D93E89480E197E20DD0E9
:1009400088EE93E00AD084E6992707D08AE005D0A4
:100950006E2F10D066276C9308956627E817F90765
:1009600020F06395E81BF90BC9F7662311F416F024
:1009700008956894605D6D9308950895AA931A93FD
:10098000A99818E0FADFE981E07811F0AB9A01C08C
:10099000AB98E981EE0FE983F0DFAC9AEEDFAC981B
:1009A000115081F7A99A18810C942309AA93AA9847
:1009B000A881E4DFC9C0AA93AA9AA881DFDFC4C0D6
:1009C000AA931A93E981E695E695E6951E2FE4E54C
:1009D000E19FF001DF01EA81F0E0EA0FFB1FE09305
:1009E0006803F0936903E12F18810C946A09AA93B4
:1009F000E981E068AE2FDADFE981EA93A981E0DFDF
:100A0000E064AE2FD3DF0C942309AA93E981EA9323
:100A1000A981EDDFE0916803F0916903E659FC4F8D
:100A2000E0810C942309AA930E94E5093197E659C5
:100A3000FC4FA881A083BFDF87C0BA93AA930E940E
:100A40009C0AA19AA99AA49AAC98A39AA29AA09A4D
:100A5000A898AAE0B0E00E94530AA89AEC81FD8110
:100A6000309721F1E681E3701E2FEC81FD81E68154
:100A7000E695E695E7700E2FEC81FD81E781EF7733
:100A80003E2FAC81BD810E94750AE093A302F093D2
:100A9000A40212960E94750AE093B802F093B9027C
:100AA000AC81BD8114960E94750A0DC010E003E070
:100AB00032E3E0E0F0E0E093A302F093A402E093DD
:100AC000B802F093B902E093BA02F093BB02A1E23C
:100AD0006DDFE12FE460AE2F69DFE02FE061AE2F24
:100AE00065DFE32FE068AE2F61DFA0E25FDFA1E00A
:100AF00022D0E1E0E0939F02E0E0E093A002E1E099
:100B0000E093A502E093A602E093A702EFEFE09343
:100B1000A802E1E0E093AF02E0EBF2E0FA93EA939F
:100B2000EFEFEA93A8E0B0E00E940A090FD0E1E0FD
:100B30000E94A30A5EC0AA93E881E03011F0ECE0C5
:100B400001C0E8E0AE2F32DF219608950E949C0A92
:100B500030E0E091A002E03009F03FEFE0E0EA93FE
:100B6000A0E045DF08EF11E0F80101501040309798
:100B700019F0A32F58DFF8CF0E9491090E94A30A11
:100B80000C948909AA931A93ED81EA93AD813DDF14
:100B90001E2FE981E63011F0E73039F4EB81EA935A
:100BA000AA810E942509EB8308C0E33021F4EB8180
:100BB000E095EB8302C0E03021F4EA81E0951E234A
:100BC00002C0E23029F4EA81AB81EA231E2B0EC079
:100BD000E13029F4EA81AB81EA231E2707C0E43023
:100BE00029F4EA81E095AB81EA2B1E23A12F1BDFBC
:100BF000188126960895AA9323970E949A0AA88995
:100C0000A43548F4AF85A03330F4AE85A03019F098
:100C1000AD85A03009F4D9C1EE85E887A889BB2746
:100C2000EE85F0E0AE0FBF1FA535E0E0BE0720F077
:100C3000A889E4E5EA1BEE872D85AF85BB27ED8506
:100C4000F0E0AE0FBF1FD19720F0AF85E0E3EA1BC5
:100C5000ED87A985A53011F00C948906EC85E1306B
:100C600009F4B3C1E33039F4E091BA02F091BB0268
:100C7000309709F4AAC10885ED85E695E695E695D5
:100C80003E2FE22FE77019F4AD852A17E9F0A02F67
:100C9000BB27E32FF0E00E946D0AAA85BB850E9466
:100CA000E809269526952695532F5F935F5FE22FDF
:100CB000AF91EA1748F0102FE12F1150E03019F0F2
:100CC0000E94ED09F9CFF1CFAE850A1711F1EE853B
:100CD000AA85BB85F0E00E94E809ED85E77009F080
:100CE0003F5F20E02F932F5FE32FAF91AE1788F483
:100CF0001E851F931F5FE02FAF91AE1718F40E945F
:100D0000ED09F7CFEE85AE81BF81F0E00E94E809E2
:100D1000E9CFEF85E7703E2FED85E03011F40C94BC
:100D2000E507EA85FB85EE83FF8310E00889303014
:100D300011F00C940207AD85A83010F40C94FD0658
:100D4000E985E03011F0E33009F402C0E63009F43F
:100D500002C0E73009F402C0E83009F402C0E9300B
:100D600021F40A93A88943DE04C0E53011F40E94FF
:100D7000FA091F931F5FEE85AF91AE17B8F5A985ED
:100D8000A53069F40E94FE09FA93EA930E94E509EE
:100D90003197E659FC4FA0810E946C0926C0E98575
:100DA000E83011F450E00EC0E93011F45FEF0AC0F2
:100DB0000E94FE090E94070A5E2FE985E63011F0C5
:100DC000E73021F40E940D0A5E2F06C0E33011F4D3
:100DD000509502C0E03019F4A52FEDDD06C00E9449
:100DE000110AEFEFEA93AD85CDDEC3CFEF85E85F63
:100DF000EF87ED85E850ED87DFC05D8520E0E0E01E
:100E0000ED8781C0E32FAD85AE0FA93020F42D858D
:100E1000E0E0ED8703C0E8E0E31B2E2F3A93A22F1A
:100E20000E941A094E2FE985E53029F50E94FA093A
:100E30001F931F5FEE85AF91AE17E0F40E94E509A6
:100E40003197E659FC4FE081E423AE2FE32F0E9457
:100E5000650A0E94170AE32FA42F0E94650AE095F5
:100E6000E1215E2B0E94FE09FA93EA93A52F0E94CE
:100E70006C09DECF2CC0E83011F450E003C0E9303B
:100E8000A9F45FEF0E940D0AAE2FE32F0E945D0AC6
:100E90005E2F1F931F5FEE85AF91AE1730F40E9457
:100EA000110A4A93A0E06EDEF4CF11C01F931F5FBA
:100EB000EE85AF91AE1758F40E94220AAE2FE32FB1
:100EC0000E945D0AEA934A93AD855CDEEFCFED8523
:100ED000E03009F47AC0AD85A83028F4ED85E21B36
:100EE0005E2FE0E003C0532FED85E850ED8710E062
:100EF000EF85E85FEF87E8E0E31B2E2F0889EA859E
:100F0000FB85EE83FF83E52FF0E0E65BFD4F449128
:100F1000E985E53029F50E94FA091F931F5FEE85E8
:100F2000AF91AE17E0F40E94E5093197E659FC4F06
:100F3000E081E423AE2FE22F0E945D0A0E94170A8F
:100F4000E22FA42F0E945D0AE095E1215E2B0E9412
:100F5000FE09FA93EA93A52F0E946C09DECF2CC0FC
:100F6000E83011F450E003C0E930A9F45FEF0E94CB
:100F70000D0AAE2FE22F0E94650A5E2F1F931F5F9E
:100F8000EE85AF91AE1730F40E94110A4A93A0E0AB
:100F9000F9DDF4CF11C01F931F5FEE85AF91AE173F
:100FA00058F40E94220AAE2FE22F0E94650AEA93AB
:100FB0004A93AD85E7DDEFCFE885AA85BB85F0E0F4
:100FC000EA0FFB1FEA87FB87A7CE0E94A10A619662
:100FD00008950E942F0A1CF0E0E0F0E034C1A881DF
:100FE000B981A435E0E0BE071CF0E3E5F0E02BC1D9
:100FF000E881F98128C10E942F0A1CF0E0E0F0E0AE
:1010000022C1A881B981D0971CF0EFE2F0E01BC1AA
:10101000E881F98118C1BA93AA9323970E94360AEE
:101020008F01002E012A19F4E0E0F0E05BC00E947D
:101030003D0A0F820E943D0A0E820E943D0A0886E8
:10104000EB85A885EA1718F4E0E0F0E04BC0F80162
:101050000F5F1F4F5491E52FA885AE0FEB85EA1760
:1010600018F0E0E0F0E03EC0EE81E695E695E6950A
:101070004E2FEE81E77009F04F5FEF81E030A1F075
:10108000A985BA85EC93A885EB85EA1BF0E0DF0122
:10109000EF81F0E00E946D0ADF01E42FF0E00E9492
:1010A0006D0AE00FF11F1EC09801E52FF0E00E0F52
:1010B0001F1FA885AF5FA887A150EB85AE1760F40E
:1010C000F9012F5F3F4FA491B0E0E42FF0E00E94C0
:1010D0006D0A0E0F1F1FEDCFF901E491A985BA85A6
:1010E000EC93F8010E94A10A2C960895E0E0E093A9
:1010F000A102A091A202BB270E94420AF0E0AE0F1B
:10110000BF1FE091A602F0E0AE0FBF1F74DFE093B7
:10111000A2020895AA9321970E94360A309711F4EB
:101120000C94E808AF81AA3009F450C0EF81EA932B
:10113000DE01179670DFAF01309709F44BC0E091E4
:10114000A502AE81EA0F3E2FA091A102BB27E32F9B
:10115000F0E0EA0FFB1F8F010535E0E01E0718F0F5
:10116000032F1127C3DFE091A102EA93E091A202CD
:10117000EA93E885EA930E94420AEA93E1E0EA935F
:101180005A934A93A6E037DDE091A102AE81EA0FBF
:10119000EA93E091A202EA93E091A502EA930E9409
:1011A000420A0E94490AE091A102EA93A091A20298
:1011B0000E94420AEA0FEA933A93E091A6020E9443
:1011C000490AE4E5F0E0E017F10711F48FDF02C00F
:1011D0000093A1020E94A10A28960895BA93AA93A7
:1011E0001A93A981BA81ED91A983BA831E2FE030A9
:1011F00019F0A12F8FDFF5CF18816CC0AA93A981B8
:10120000BB27E7DEE093A102A881BB27F4DEE093D1
:10121000A20219C0BA93AA93B981A881109631F09D
:10122000FC81EB816A8161931197E9F7EB81FC8185
:1012300025960895AA93E881F0E0E65BFD4FA4911E
:10124000E9810E945D0A22960895AA931A93E98182
:10125000E63011F0E93019F410919F0209C0E8302E
:1012600019F41091A00204C0E730A1F41091AF026C
:10127000E091A002E03049F0103019F0EFEF188152
:1012800029C0EA81E095188125C0103019F4E0E00A
:10129000188120C0EA8118811DC0BA93AA93EA81FF
:1012A000E13021F4E881F981E49114C0E23029F4BD
:1012B000A881B9810E94790A0DC0E33041F4A88168
:1012C000B981E091B802F091B902099503C0A881F3
:1012D000B981EC9123960895AA93EB81E03029F42B
:1012E000E881A981BA81EC9314C0E23031F4E8813D
:1012F000A981BA810E94850A0CC0E33051F4E981CA
:10130000FA81FA93EA93AA81E091BA02F091BB02C2
:10131000099524960895ED91FD913196FE93EE93F3
:101320000895E0E0EA93A0E00C94FE08DA9A8DE0DC
:101330008A95F1F7E0E0C999E1E00895AA93DE9873
:10134000E981E062AE2F0895A8810E948B02DE9AA7
:101350008BE18A95F1F708950E94D102E0E1EA93CA
:101360000895EA93AFE00C94C302EA93A0E00C94D2
:10137000FE08FA93EA93A4ECB2E00E948F04A4EC76
:10138000B2E00C94EE08EA93A4E10C94FE08A0915C
:101390005A03B0915B030895A0915C03B0915D0383
:1013A0000895A0915E03B0915F030895E093BC029D
:1013B000F093BD020895A0916003B0916103089578
:1013C000E093BE02F093BF020895A8E6B3E0A3CF76
:1013D000EA0FFB1FEE83FF830895EC85EA93EF810C
:1013E000F8853196EF83F8873197FA93EA93A0E076
:1013F0000C946C090A93A8890C94E004EC85EA9398
:10140000EF81F8853196EF83F88731970895662745
:101410007727DF01CB010C944D095A93AA850C94D0
:1014200025090A930395E889EA935A9308955E2F54
:10143000EC85EA93AF81B885882799270E944D09EA
:101440001E2E08950A930395E889EA93EE85EA93A0
:10145000E985FA853196E987FA873197D8CFBA932B
:10146000AA93A881B9810E94960A08950E949A0AB7
:10147000E091A302F091A4020895F8010F5F1F4FBD
:1014800004900895E091A302F091A4023196E491B2
:101490000895EA93E0E0EA93E0E0F0E0FA93EA935B
:1014A000A8E00C94FB05109639F080ED97E00197C9
:1014B000F1F7A8951197C9F70895EE230E2EEA2F9C
:1014C00019F0EE0F0A94E9F70895EE230E2EEA2F95
:1014D00019F0E6950A94E9F70895FA9FF02DEB9F2D
:1014E000F00DEA9FE02DF10D0895ED91FC9111971B
:1014F0000895E199FECFFF93FFB7F894AEBBBFBB51
:10150000E09AEDB3FFBFFF910895E19B02C0A8955B
:10151000FCCF9FB7F894AEBBBFBBE09A8DB3E81782
:1015200019F0EDBBE29AE19A9FBF089500240A16D4
:101530000B0608955A934A933A932A931A930A935F
:1015400008955D814C813B812A811981088108952C
:00000001FF
