:0800000028C1FECFFDCFFCCFAB
:10000800FBCFFACFF9CFF8CFF7CF4BC1F5CFF4CF6D
:10001800F3CFF2CFF1CFF0CFEFCFEECFEDCF050793
:100028002060000000000000005F000000070007DB
:1000380000147F147F14242A7F2A12231308646271
:1000480036495522500005030000001C22410000DB
:1000580041221C00082A1C2A0808083E08080050EB
:100068003000000808080808003030000020100898
:1000780004023E5149453E00427F400042615149D9
:10008800462141454B311814127F10274545453903
:100098003C4A494930017109050336494949360640
:1000A8004949291E0036360000005636000000086F
:1000B800142241141414141441221408000201518A
:1000C8000906324979413E7E1111117E7F4949491D
:1000D800363E414141227F4141221C7F49494941E5
:1000E8007F090901013E414151327F0808087F001C
:1000F800417F41002040413F017F081422417F4059
:100108004040407F0204027F7F0408107F3E414147
:10011800413E7F090909063E4151215E7F0919299F
:1001280046464949493101017F01013F4040403F6E
:100138001F2040201F7F2018207F631408146303AA
:1001480004780403615149454300007F414102049A
:1001580008102041417F0000040201020440404091
:100168004040000102040020545454787F4844441D
:10017800383844444420384444487F385454541848
:10018800087E090102081454543C7F0804047800CE
:10019800447D40002040443D00007F102844004139
:1001A8007F40007C041804787C08040478384444B0
:1001B80044387C14141408081414187C7C080404AB
:1001C800084854545420043F4440203C4040207C7C
:1001D8001C2040201C3C4030403C44281028440C43
:1001E8005050503C4464544C4400083641000000D0
:1001F8007F0000004136080002010204027F4141ED
:10020800417F1027E80364000A0001000010000184
:1002180010000100000103070F1F3F7FFF00890046
:100228000000000068656C6C6F0001002D4E414EA7
:1002380000494E4600000500050026020600600140
:100248002C0201001B0432020000F894EE27ECBBDC
:10025800F1E0FBBFEBBFE5BF8DE0A2E0BB27ED936C
:100268008A95E9F780E094E0A0E6ED930197E9F735
:10027800EEE3F2E085919591009761F0A591B59133
:1002880005901590BF01F00105900D920197E1F7D7
:10029800FB01F0CFEFE5EDBFE4E0EEBFC0E6D1E053
:1002A80042C1EA93EFB7EA93ECE9E2BF9394E8EC32
:1002B800E91509F49924981410F4919A01C09198B9
:1002C800E991EFBFE99118952897E7ECE7BBE0E0E3
:1002D800E8BBE0E2E4BBE5BBEFECE1BBECEFE2BB83
:1002E800E2E0E3BFECE9E2BFE1EAEFBDEBE0EEBD3F
:1002F800E0E0EDBDECBDE7BDE6BDEBBDEABDE9BDA7
:10030800E8BDE2BDE5BDE4BDE3BDE1E0E9BFE0E095
:10031800E5BFEAB9E0E8E8B9E0E0E0BFE6B9EDB981
:10032800E6BFE6E2F0E0E883F983E0E0EA83EB8306
:10033800EC83ED83EE81EC7FEE83E37EE061EE8378
:10034800EF81E078E164EF83DE017AD17894ABC481
:100358006AD510E0183088F4E981E07811F49698AD
:1003680001C0969A63D5E981EE0FE98363D5A98127
:10037800EA2BE98393981F5FEDCFE9811881F3C4D5
:100388008DD610E000E0083038F450D5110F52D562
:100398001E2B93980F5FF7CFE12F099119910895BC
:1003A800929A88E795E00197F1F79298979A0895BD
:1003B80047D54ED5D8C444D550D54FD54ED54DD5B3
:1003C80047D5D1C4AA939798E981E062AE2F47D563
:1003D80046D545D544D5BCDF40D53AD5C4C4AA9343
:1003E80097983BD535D59BC1AA939798E3E0EA93B4
:1003F800A3E0DEDF2DD59798EAE0EA93AC81DBDF56
:1004080031D5AC81D8DFEBE0EA93AB81DBDF2AD5CD
:10041800AB81D8DFECE0EA93AA81D4DF23D5AA81A7
:10042800D1DFEDE0EA93A981CDDF1CD5A981CADF30
:10043800F8C41BD5929A08958BE18A95F1F715D5E2
:10044800E7E0EA93AAE7B4DFEDE1EA93A4E0B0DFDE
:10045800ECE10FD5E5E0EA93A2E0AADF5A924A92CE
:100468007A92A62DC1DFE2E004D5E1E002D5E4E00E
:1004780003D59EDF08959298EBD49798A1E668DF9C
:100488008BE18A95F1F77CDFF0E0E0931902F093B5
:100498001A0276DFABE1B2E0F2D4ADE1B2E0EFD41C
:1004A800AFE1B2E0F0E0ED93FC93979A929AE7E01F
:1004B800EA93AEE77DDFA2EE92DF0895AA93EA8180
:1004C800F0E0E130A0E0FA07A9F4DDD449F4DBD488
:1004D80011F4C09801C0C09AD9D4FBBDEABD22C0AE
:1004E800D2D411F4C09801C0C09AD0D4D2D4FBBDE4
:1004F800EABD18C0E230A0E0FA07A1F4C4D449F478
:10050800C2D411F4C69801C0C69AC0D4F9BDE8BDDA
:1005180009C0B9D411F4C69801C0C69AB7D4B9D4E1
:10052800F9BDE8BD61C4D0DE87DF3ADFE2E0EA93D7
:10053800E1E0A2D4C3DFE1E0EA939ED4BFDFAFD409
:10054800C3D3A0E6B1E0B1D3ACE2B1E055D5E9D070
:10055800AD986FDF859923C0E4D08DDFA0D4B4D3E4
:10056800E0911902F0911A029CD4E4E185D4ACD34D
:10057800E0911B02F0911C0294D4E0E0EA93A4E11C
:10058800A3D3E0911D02F0911E028BD4E4E1EA931B
:10059800A4E19AD3E0911F02F091200282D4D9CF2E
:1005A800FFCF089540D4A99818E0FBDFE981E078EF
:1005B80011F0AB9A01C0AB98E981EE0FE983F1DF46
:1005C800AC9AEFDFAC98115081F7A99A1881CBC388
:1005D800AA93AA98A881E6DFA2C0AA93AA9AA8819A
:1005E800E1DF9DC020D4E98164D41E2FE4E5E19FBA
:1005F800F001DF01EA8161D4E0932102F093220245
:10060800E12F1881F1C3AA93E981E0685AD4E981FE
:10061800EA93A981E7DFE06454D4A5C3AA93E981EA
:10062800EA93A981F0DFE0912102F09122024BD4F4
:10063800E08199C3AA934AD4A881A083CEDF6FC072
:100648004ED42AD5A19AA99AA49AAC98A39AA29A08
:10065800A09AA898AAE0B0E0CFD4A89A43D430973B
:10066800E1F040D4E681E3701E2F3CD4E681E695A4
:10067800E695E7700E2F36D4E781EF773E2FAC81F1
:10068800BD81DCD432D4AC81BD811296D7D432D4AA
:10069800AC81BD811496D2D408C010E003E032E3E7
:1006A8002ED423D42CD426D42AD4E0938101F093D9
:1006B8008201A1E28DDFE12FE46003D4E02FE06145
:1006C80000D4E32FE068FDD3A0E282DFA1E01FD0D1
:1006D800E1E0E0936601E0E0E0936701E1E0E093A8
:1006E8006C01E0936D01E0936E01EFEFE0936F0111
:1006F800E1E0E0937601E7E7F1E004D4EFEFEA9375
:10070800A8E0B0E01AD30DD0E1E0CDD456C0AA934A
:10071800E881E03011F0ECE001C0E8E0D2D32196A6
:100728000895BAD430E0E0916701E03009F03FEF76
:10073800B6D369DF08EF11E0F80101501040309797
:1007480019F0A32F77DFF8CFAAD3BED2ACD469C3F0
:100758006AD3ED81EA93AD8161DF1E2FE981E7302D
:1007680011F0E83031F4EB81EA93AA81FED2EB83F1
:1007780008C0E33021F4EB81E095EB8302C0E03060
:1007880021F4EA81E0951E2302C0E23029F4EA81CF
:10079800AB81EA231E2B0EC0E13029F4EA81AB813C
:1007A800EA231E2707C0E43029F4EA81E095AB81EB
:1007B800EA2B1E23A12F3EDF188126960895AA93BF
:1007C800239768D4A889A43548F4AF85A03330F4BA
:1007D800AE85A03019F0AD85A03009F488C1EE854A
:1007E800E887A889BB27EE8590D3A535E0E0BE074A
:1007F80020F0A889E4E5EA1BEE872D85AF85BB27A5
:10080800ED8583D3D19720F0AF85E0E3EA1BED8730
:10081800A985A63009F054C0EC85E13009F467C118
:10082800E33039F4E0918101F0918201309709F4C5
:100838005EC10885ED853DD33E2FE22FE77019F4A0
:10084800AD852A17D9F0A02FBB27E32F62D3AA853D
:10085800BB85EA0FFB1F60D3269526952695532F57
:100868005F935F5FE22FAF91EA1740F0102FE12FFF
:100878001150E03011F053D3FACFF2CFAE850A17FA
:10088800F9F0EE85AA85BB8518D346D3ED85E770C8
:1008980009F03F5F20E02F932F5FE32FAF91AE1752
:1008A80078F41E851F931F5FE02FAF91AE1710F4E9
:1008B80036D3F8CFEE85AE81BF81FFD22DD3EBCFF3
:1008C800EF85E7703E2FED85E03009F410C1EA8529
:1008D800FB8522D310E00889303009F059C0AD8576
:1008E800A83008F450C0E985E03011F0E33009F48D
:1008F80002C0E73009F402C0E83009F402C0E93068
:1009080009F402C0EA3019F415D37DDE04C0E630DC
:1009180011F410D367DE1F9310D3AF91AE1760F5B3
:10092800A985A63031F40CD3EDD2D0D2A0815ED205
:1009380022C0E985E93011F450E00CC0EA3011F426
:100948005FEF08C0FDD205D35E2FE985E73011F0CF
:10095800E83019F403D35E2F06C0E33011F4509544
:1009680002C0E03019F4A52F38DE05C0FAD2EFEF47
:10097800EA93AD85EDDECFCFEF85E85FEF87ED85B4
:10098800E850ED87ADC05D8520E0E0E0ED8767C009
:10099800E32FAD85AE0FA93020F42D85E0E0ED877B
:1009A80003C0E8E0E31B2E2F3A93A22FD5D14E2F98
:1009B800E985E630B9F4BED215DE1F93BED2AF91F9
:1009C800AE1778F483D2E081E423AE2FE32F26D349
:1009D800CED2E32FA42F22D3D4D294D2A52F06D2DD
:1009E800ECCF22C0E93011F450E003C0EA3089F4BA
:1009F8005FEFB4D2AE2FE32F09D35E2F1F939DD2A2
:100A0800AF91AE1728F4ADD24A93A0E0A1DEF6CF9D
:100A18000BC01F9392D2AF91AE1730F4B6D2AE2F5F
:100A2800E32FF4D2BFD2F5CFED85E03009F45FC0F3
:100A3800AD85A83028F4ED85E21B5E2FE0E003C009
:100A4800532FED85E850ED8710E0EF85E85FEF87DD
:100A5800E8E0E31B2E2F0889EA85FB855DD2E52FA8
:100A6800F0E0E45EFD4F4491E985E630B9F462D2E6
:100A7800B9DD1F9362D2AF91AE1778F427D2E08127
:100A8800E423AE2FE22FC2D272D2E22FA42FBED21D
:100A980078D238D2A52FAAD1ECCF22C0E93011F4F0
:100AA80050E003C0EA3089F45FEF58D2AE2FE22F4E
:100AB800B5D25E2F1F9341D2AF91AE1728F451D211
:100AC8004A93A0E045DEF6CF0BC01F9336D2AF9114
:100AD800AE1730F45AD2AE2FE22FA0D263D2F5CFA0
:100AE800E885AA85BB85E9D1EA87FB87ECCED9D210
:100AF800619608955BD214F002D235C15CD2A43558
:100B0800E0E0BE071CF0E3E5F0E02DC1E881F981E3
:100B18002AC14CD214F0F3D126C14DD2D0971CF083
:100B2800EFE2F0E020C1E881F9811DC1D8D1239717
:100B380045D28F01002E012A11F4E1D152C044D2CE
:100B48000F8242D20E8240D20886EB85A885EA172A
:100B580010F4D5D146C0F8010F5F1F4F5491A885F6
:100B6800BB27EE27A50FBE1FEB85F0E0EA17FB07B2
:100B780010F0C5D136C0EE819CD14E2FEE81E770C2
:100B880009F04F5FEF81E03081F0A985BA85EC93D9
:100B9800A885EB85EA1BF0E0DF01EF81BAD1DF0120
:100BA800E42FB7D1E00FF11F1CC09801E52FF0E04A
:100BB8000E0F1F1FA885AF5FA887A150EB85AE1742
:100BC80050F4F9012F5F3F4FA491B0E0E42FA1D179
:100BD8000E0F1F1FEFCFF901E491A985BA85EC9399
:100BE800F8015FD22C960895E0E0E0936801A091A7
:100BF8006901BB27EED189D1E0916D0186D189DFEA
:100C0800E09369010895AA932197D8D1309709F400
:100C180047C0AF81AA3009F441C0EF81EA93DE01F1
:100C2800179684DFAF013097E9F1E0916C01AE814E
:100C3800EA0F3E2FA0916801BB273FD18F010535F0
:100C4800E0E01E0718F0032F1127CEDFE0916801BE
:100C5800C7D1E885EA93BDD1EA93E1E0EA935A93D4
:100C68004A93A7E0ACDDE0916801AE81EA0FB8D104
:100C7800E0916C01EA93ADD1B8D1E0916801EA93B3
:100C8800A0916901A6D1EA0FEA933A93E0916D0128
:100C9800ACD1E4E5F0E0E017F10711F4A5DF02C0FC
:100CA80000936801FED12896089519D11A93A98155
:100CB800BA81ED91A983BA831E2FE03019F0A12FD4
:100CC800A2DFF5CF188190C0AA93A981BB2712DFB4
:100CD800E0936801A881BB271CDFE093690143C04A
:100CE800FED0A991B991E991F99130962AF4E0954D
:100CF800F09531966DE26D93E89480E197E20DD01E
:100D080088EE93E00AD084E6992707D08AE005D0D8
:100D18006E2F10D066276C9308956627E817F90799
:100D280020F06395E81BF90BC9F7662311F416F058
:100D380008956894605D6D930895D1D0B981A881B4
:100D4800109631F0FC81EB816A8161931197E9F784
:100D5800EB81FC8125960895AA9398D0E45EFD4F17
:100D6800A491E98153D1229608955DD0E981E730B5
:100D780011F0EA3019F41091660109C0E93019F44C
:100D88001091670104C0E830A1F410917601E09158
:100D98006701E03049F0103019F0EFEF188124C0F6
:100DA800EA81E095188120C0103019F4E0E018813C
:100DB8001BC0EA81188118C092D0EA81E13021F481
:100DC800E881F981E49110C0E23019F4F4D041D1FE
:100DD8000BC0E33039F4EFD0E0917F01F09180014E
:100DE800099502C0E8D0EC9123960895AA93EB8167
:100DF800E03029F4E881A981BA81EC9312C0E2308D
:100E080029F4E881A981BA8130D10BC0E33049F4D3
:100E1800E981FA8177D0AA81E0918101F09182017C
:100E2800099524960895AA931A9308958DE08A95B2
:100E3800F1F70895939AFADFE0E08499E1E00895E4
:100E4800AA939798E981E062AE2F82DAA88180CAD6
:100E5800979A8BE18A95F1F70895A88179CA78DA8B
:100E6800A8E40895E0E1EA930895E0E0EA93AFE1A9
:100E78009FCAEA93AFE09CCAEA93A0E00895F0E025
:100E8800ED93FC937DCAE981E0300895E881F0E0B4
:100E98000895AFEFB0E0D6D0EA1BFB0B0895E0E071
:100EA800EBCFFA93EA93A3E8B1E01ADFA3E8B1E045
:100EB800FCCEE695E695E6950895F0E0EA0FFB1F6F
:100EC8000895AE2F85CBED5DFD4F0895A1E2B2E008
:100ED800ED91FD913196FE93EE933197F4CFBA934D
:100EE800AA930895EC81FD810895E0936A01F09337
:100EF8006B010895E0937F01F09380010895E0E08D
:100F0800F0E00895FA93EA930895F0E0AE0FBF1F5A
:100F18000895F0E08BD00895EE83FF830895EC8563
:100F2800EA93EF81F8853196EF83F8873197EADF06
:100F3800A0E05CCF0A93A88908951F5FEE85089505
:100F4800EC85EA93EF81F8853196EF83F88731973E
:100F5800089566277727DF01CB012ECF5A93AA85FC
:100F680004CF0A930395E889EA935A9308955E2F6C
:100F7800EC85EA93AF81B885882799271DDF1E2E57
:100F88000895E095E1215E2BDBCF0A930395E8896C
:100F9800EA93EE85EA93E985FA853196E987FA8737
:100FA8003197D7CFEA934A93AD85D2CB98DFA88102
:100FB800B9816CD00895A881B98108956BD0E0916A
:100FC8006A01F0916B010895F8010F5F1F4F0490BB
:100FD8000895E0916A01F0916B013196E4910895CA
:100FE800EA93E0916901EA930895EA93E0E0EA93CD
:100FF80086DF88DFA9E0E3CB109639F080ED97E033
:101008000197F1F7A8951197C9F70895EE230E2EC9
:10101800EA2F19F0EE0F0A94E9F70895EE230E2E41
:10102800EA2F19F0E6950A94E9F70895FA9FF02D4A
:10103800EB9FF00DEA9FE02DF10D0895ED91FC91E5
:10104800119708951B2EBF2FF12D1A2EAE2FE12DCB
:101058000895E199FECFFF93FFB7F894AEBBBFBBED
:10106800E09AEDB3FFBFFF910895E19B02C0A895F8
:10107800FCCF9FB7F894AEBBBFBBE09A8DB3E8171F
:1010880019F0EDBBE29AE19A9FBF089500240A1671
:101098000B0608955A934A933A932A931A930A93FC
:1010A80008955D814C813B812A81198108810895C9
:00000001FF
