:0A00000041C1FECFFDCFFCCFFBCFC6
:10000A00FACFF9CFF8CFF7CF64C1F5CFF4CFF3CF5A
:10001A00F2CFF1CFF0CFEFCFEECFEDCF05072060D3
:10002A0000000000000000040A0400070007001492
:10003A007F147F14242A7F2A122313086462364904
:10004A005522500005030000001C224100004122F5
:10005A001C00082A1C2A0808083E0808005030001C
:10006A0000080808080800303000002010080402C0
:10007A003E5149453E00427F400042615149462176
:10008A0041454B311814127F1027454545393C4AE2
:10009A004949300171090503364949493606494932
:1000AA00291E0036360000005636000000081422C9
:1000BA0041141414141441221408000201510906AF
:1000CA00324979413E7E1111117E7F494949363EB6
:1000DA00414141227F4141221C7F494949417F09CF
:1000EA000901013E414151327F0808087F00417FE2
:1000FA0041002040413F017F081422417F40404097
:10010A00407F0204027F7F0408107F3E4141413E46
:10011A007F090909063E4151215E7F091929464690
:10012A004949493101017F01013F4040403F1F20B9
:10013A0040201F7F2018207F63140814630304786B
:10014A000403615149454300007F414102040810FC
:10015A002041417F00000402010204404040404027
:10016A00000102040020545454787F48444438382B
:10017A0044444420384444487F3854545418087E30
:10018A00090102081454543C7F0804047800447D91
:10019A0040002040443D00007F10284400417F4039
:1001AA00007C041804787C080404783844444438F1
:1001BA007C14141408081414187C7C0804040848D5
:1001CA0054545420043F4440203C4040207C1C208E
:1001DA0040201C3C4030403C44281028440C5050DD
:1001EA00503C4464544C44000836410000007F00EF
:1001FA0000004136080002010204027F4141417FAA
:10020A001027E80364000A00010000100001100032
:10021A000100000103070F1F3F7FFF0000B5526F67
:10022A00626F74696300464F520073746172746539
:10023A007273004449592D4855530068656C6C6FB8
:10024A00000001002D4E414E00494E4600000200BA
:10025A000400260208006001280204006801300236
:10026A0009006C013402080075013D0206007D0197
:10027A004502010038044C020000F894EE27ECBB5A
:10028A00F1E0FBBFEBBFE5BF8DE0A2E0BB27ED933A
:10029A008A95E9F780E094E0A0E6ED930197E9F703
:1002AA00E8E5F2E085919591009761F0A591B59105
:1002BA0005901590BF01F00105900D920197E1F7A5
:1002CA00FB01F0CFEFE5EDBFE4E0EEBFC0E6D1E021
:1002DA0067C1EA93EFB7EA93ECE9E2BF4394E8EC2B
:1002EA00E41509F44424471410F4909A01C0909834
:1002FA00E991EFBFE99118952897E7ECE7BBE0E0B1
:10030A00E8BBE0E2E4BBE0E0E5BBE9E7E1BBEEEF36
:10031A00E2BBE2E0E3BFECE9E2BFE1EAEFBDEBE01A
:10032A00EEBDE0E0EDBDECBDE7BDE6BDEBBDEABD6F
:10033A00E9BDE8BDE2BDE5BDE4BDE3BDE1E0E9BF7D
:10034A00E0E0E5BFEAB9E0E8E8B9E0E0E0BFE6B935
:10035A00EDB9E6BFE6E2F0E0E883F983E0E0EA839C
:10036A00EB83EC83ED83EE81EC7FEE83E37EEC603E
:10037A00EE83EF81E078EC63EF83DE019DD1789420
:10038A00EAE07E2E92D594D5A0E6B1E0D0D4ECE195
:10039A00EA93ADE0DBD4A8E6B1E0C9D4E3E2EA939C
:1003AA00A8E1D4D4ACE6B1E0C2D4E9E1EA93A8E288
:1003BA00CDD4A5E7B1E0BBD4A8EEB3E05DD6B5C411
:1003CA0079D510E0183088F4E981E07811F496982C
:1003DA0001C0969A72D5E981EE0FE98372D5A98197
:1003EA00EA2BE98393981F5FEDCFE9811881FDC459
:1003FA0095D610E000E0083038F45FD5110F61D5CA
:10040A001E2B93980F5FF7CFE12F09911991089549
:10041A00949A88E795E00197F1F79498959A089548
:10042A0056D55DD5E2C453D55FD55ED55DD55CD5CD
:10043A0056D5DBC4AA939598E981E062AE2F56D5CA
:10044A0055D554D553D5BCDF4FD549D5CEC4AA937B
:10045A0095984AD544D59FC1AA939598E3E0EA9323
:10046A00A3E0DEDF3CD59598EAE0EA93AC81DBDFD6
:10047A0040D5AC81D8DFEBE0EA93AB81DBDF39D53D
:10048A00AB81D8DFECE0EA93AA81D4DF32D5AA8126
:10049A00D1DFEDE0EA93A981CDDF2BD5A981CADFAF
:1004AA0002C503D5AFE1BCDF949A08958BE18A9522
:1004BA00F1F7FBD4AFE1B4DFE7E0EA93AAE7B0DFF4
:1004CA00EDE1EA93A4E0ACDFECE116D5E5E0EA93CE
:1004DA00A2E0A6DF5A926A929A92A82DBDDFE2E0C4
:1004EA000BD5E1E009D5E4E0EA93A0E099DF0895AD
:1004FA009498F5D49598A1E663DF8BE18A95F1F794
:10050A0077DFF0E0E0933602F093370271DFA8E379
:10051A00B2E0F5D4AAE3B2E0F2D4ACE3B2E0F0E0A0
:10052A00ED93FC93959A949AE7E0EA93AEE778DF25
:10053A00A2EE8DDF0895AA93EA81F0E0E130A0E00F
:10054A00FA07A9F4E0D449F4DED411F4C09801C042
:10055A00C09ADCD4FBBDEABD22C0D5D411F4C09840
:10056A0001C0C09AD3D4D5D4FBBDEABD18C0E230CD
:10057A00A0E0FA07A1F4C7D449F4C5D411F4C69887
:10058A0001C0C69AC3D4F9BDE8BD09C0BCD411F4F0
:10059A00C69801C0C69ABAD4BCD4F9BDE8BD66C42F
:1005AA00ABDE84DF35DFE2E0BAD4E1E0B8D47DD453
:1005BA007FD4ADE7B1E0BBD3ACE2B1E05DD5EDD01D
:1005CA00AD986FDF879927C0C79B02C0C79801C043
:1005DA00C79AE3D08DDF69D46BD4E0913602F091EB
:1005EA003702A2D4E4E1EA9363D4E0913802F091AD
:1005FA0039029AD45AD4A4E1A9D3E0913A02F091EB
:10060A003B0292D4E4E1EA93A4E1A0D3E0913C0254
:10061A00F0913D0289D4D5CFFFCF08954BD4A99844
:10062A0018E0FBDFE981E07811F0AB9A01C0AB98E2
:10063A00E981EE0FE983F1DFAC9AEFDFAC98115054
:10064A0081F7A99A1881D1C3AA93AA98A881E6DF4B
:10065A00A2C0AA93AA9AA881E1DF9DC02BD4E981FE
:10066A006BD41E2FE4E5E19FF001DF01EA8168D433
:10067A00E0933E02F0933F02E12F1881F7C3AA9359
:10068A00E981E06861D4E981EA93A981E7DFE0645E
:10069A005BD4ABC3AA93E981EA93A981F0DFE09125
:1006AA003E02F0913F0252D4E0819FC3AA9351D4F3
:1006BA00A881A083CEDF6FC055D42ED5A19AA99A5E
:1006CA00A49AAC98A39AA29AA09AA898AAE0B0E091
:1006DA00D3D4A89A4AD43097E1F047D4E681E3709C
:1006EA001E2F43D4E681E695E695E7700E2F3DD49A
:1006FA00E781EF773E2FAC81BD81E0D439D4AC815C
:10070A00BD811296DBD439D4AC81BD811496D6D47E
:10071A0008C010E003E032E335D42AD433D42DD410
:10072A0031D4E0939E01F0939F01A1E28DDFE12F86
:10073A00E4600AD4E02FE06107D4E32FE06804D430
:10074A00A0E282DFA1E01FD0E1E0E0938301E0E0D4
:10075A00E0938401E1E0E0938901E0938A01E09368
:10076A008B01EFEFE0938C01E1E0E0939301E4E980
:10077A00F1E00BD4EFEFEA93A8E0B0E020D30DD07C
:10078A00E1E0D1D457C0AA93E881E03011F0ECE05F
:10079A0001C0E8E0D9D321960895BED430E0E091B3
:1007AA008401E03009F03FEF80D3A0E068DF08EF72
:1007BA0011E0F80101501040309719F0A32F76DFAD
:1007CA00F8CF73D375D3AFD46EC374D3ED81EA93E4
:1007DA00AD8160DF1E2FE981E73011F0E83031F496
:1007EA00EB81EA93AA8103D3EB8308C0E33021F4B7
:1007FA00EB81E095EB8302C0E03021F4EA81E095D9
:10080A001E2302C0E23029F4EA81AB81EA231E2BBF
:10081A000EC0E13029F4EA81AB81EA231E2707C022
:10082A00E43029F4EA81E095AB81EA2B1E23A12F5B
:10083A003DDF188126960895AA9323976BD4A88939
:10084A00A43548F4AF85A03330F4AE85A03019F052
:10085A00AD85A03009F488C1EE85E887A889BB2751
:10086A00EE8596D3A535E0E0BE0720F0A889E4E539
:10087A00EA1BEE872D85AF85BB27ED8589D3D197F6
:10088A0020F0AF85E0E3EA1BED87A985A63009F0E1
:10089A0054C0EC85E13009F467C1E33039F4E091E2
:1008AA009E01F0919F01309709F45EC10885ED859C
:1008BA0043D33E2FE22FE77019F4AD852A17D9F0FA
:1008CA00A02FBB27E32F68D3AA85BB85EA0FFB1F9E
:1008DA0066D3269526952695532F5F935F5FE22F61
:1008EA00AF91EA1740F0102FE12F1150E03011F0CC
:1008FA0059D3FACFF2CFAE850A17F9F0EE85AA8559
:10090A00BB851ED34CD3ED85E77009F03F5F20E02D
:10091A002F932F5FE32FAF91AE1778F41E851F93A5
:10092A001F5FE02FAF91AE1710F43CD3F8CFEE85DE
:10093A00AE81BF8105D333D3EBCFEF85E7703E2F6E
:10094A00ED85E03009F410C1EA85FB8528D310E073
:10095A000889303009F059C0AD85A83008F450C074
:10096A00E985E03011F0E33009F402C0E73009F418
:10097A0002C0E83009F402C0E93009F402C0EA30E2
:10098A0019F41BD37CDE04C0E63011F416D366DEFC
:10099A001F9316D3AF91AE1760F5A985A63031F42F
:1009AA0012D3F3D2D6D2A08163D222C0E985E9302C
:1009BA0011F450E00CC0EA3011F45FEF08C003D321
:1009CA000BD35E2FE985E73011F0E83019F409D32B
:1009DA005E2F06C0E33011F4509502C0E03019F4DE
:1009EA00A52F37DE05C000D3EFEFEA93AD85EDDE24
:1009FA00CFCFEF85E85FEF87ED85E850ED87ADC093
:100A0A005D8520E0E0E0ED8767C0E32FAD85AE0F9E
:100A1A00A93020F42D85E0E0ED8703C0E8E0E31B70
:100A2A002E2F3A93A22FDAD14E2FE985E630B9F468
:100A3A00C4D214DE1F93C4D2AF91AE1778F489D210
:100A4A00E081E423AE2FE32F29D3D4D2E32FA42FBE
:100A5A0025D3DAD29AD2A52F0BD2ECCF22C0E93015
:100A6A0011F450E003C0EA3089F45FEFBAD2AE2F36
:100A7A00E32F0CD35E2F1F93A3D2AF91AE1728F4A6
:100A8A00B3D24A93A0E0A1DEF6CF0BC01F9398D24F
:100A9A00AF91AE1730F4BCD2AE2FE32FF7D2C5D246
:100AAA00F5CFED85E03009F45FC0AD85A83028F4B4
:100ABA00ED85E21B5E2FE0E003C0532FED85E85081
:100ACA00ED8710E0EF85E85FEF87E8E0E31B2E2F64
:100ADA000889EA85FB8563D2E52FF0E0E45EFD4FE5
:100AEA004491E985E630B9F468D2B8DD1F9368D23B
:100AFA00AF91AE1778F42DD2E081E423AE2FE22F26
:100B0A00C5D278D2E22FA42FC1D27ED23ED2A52F4F
:100B1A00AFD1ECCF22C0E93011F450E003C0EA3083
:100B2A0089F45FEF5ED2AE2FE22FB8D25E2F1F9309
:100B3A0047D2AF91AE1728F457D24A93A0E045DEC8
:100B4A00F6CF0BC01F933CD2AF91AE1730F460D2F0
:100B5A00AE2FE22FA3D269D2F5CFE885AA85BB854D
:100B6A00EFD1EA87FB87ECCEDCD26196089561D299
:100B7A0014F008D23AC162D2A435E0E0BE071CF0F4
:100B8A00E3E5F0E032C1E881F9812FC152D214F0D5
:100B9A00F9D12BC153D2D0971CF0EFE2F0E025C176
:100BAA00E881F98122C1DED123974BD28F01002E31
:100BBA00012A11F4E7D152C04AD20F8248D20E82DA
:100BCA0046D20886EB85A885EA1710F4DBD146C021
:100BDA00F8010F5F1F4F5491A885BB27EE27A50F79
:100BEA00BE1FEB85F0E0EA17FB0710F0CBD136C049
:100BFA00EE81A2D14E2FEE81E77009F04F5FEF81AF
:100C0A00E03081F0A985BA85EC93A885EB85EA1BCB
:100C1A00F0E0DF01EF81C0D1DF01E42FBDD1E00FA9
:100C2A00F11F1CC09801E52FF0E00E0F1F1FA885C9
:100C3A00AF5FA887A150EB85AE1750F4F9012F5F7B
:100C4A003F4FA491B0E0E42FA7D10E0F1F1FEFCFA3
:100C5A00F901E491A985BA85EC93F80162D22C9640
:100C6A000895E0E0E0938501A0918601BB27F4D1C5
:100C7A008FD1E0918A018CD189DFE09386010895B2
:100C8A00AA932197DED1309709F44CC0AF81AA30DC
:100C9A0009F446C0EF81EA93DE01179684DFAF01BB
:100CAA00309709F441C0E0918901AE81EA0F3E2FE5
:100CBA00A0918501BB2744D18F010535E0E01E07CD
:100CCA0018F0032F1127CDDFE0918501CCD1E885FB
:100CDA00EA93C2D1EA93E1E0EA935A934A93A7E0EE
:100CEA00ABDDE0918501AE81EA0FBDD1E0918901CA
:100CFA00EA93B2D1EA93D9D0BBD1E0918501EA93C4
:100D0A00A0918601A9D1EA0FEA933A93E0918A0168
:100D1A00EA93CBD0ADD1E4E5F0E0E017F10711F4A6
:100D2A00A0DF02C000938501FCD1289608951AD14C
:100D3A001A93A981BA81ED91A983BA831E2FE03053
:100D4A0019F0A12F9DDFF5CF188190C0AA93A98130
:100D5A00BB270DDFE0938501A881BB2717DFE0934E
:100D6A00860143C0FFD0A991B991E991F9913096D2
:100D7A002AF4E095F09531966DE26D93E89480E15E
:100D8A0097E20DD088EE93E00AD084E6992707D03F
:100D9A008AE005D06E2F10D066276C9308956627D7
:100DAA00E817F90720F06395E81BF90BC9F76623E2
:100DBA0011F416F008956894605D6D930895D2D089
:100DCA00B981A881109631F0FC81EB816A81619327
:100DDA001197E9F7EB81FC8125960895AA9396D09D
:100DEA00E45EFD4FA491E98151D12296089562D023
:100DFA00E981E73011F0EA3019F41091830109C052
:100E0A00E93019F41091840104C0E830A1F410917A
:100E1A009301E0918401E03049F0103019F0EFEFCE
:100E2A00188124C0EA81E095188120C0103019F495
:100E3A00E0E018811BC0EA81188118C093D0EA81CA
:100E4A00E13021F4E881F981E49110C0E23019F42B
:100E5A00F5D03FD10BC0E33039F4F0D0E0919C01DA
:100E6A00F0919D01099502C0E9D0EC91239608956D
:100E7A00AA93EB81E03029F4E881A981BA81EC9345
:100E8A0012C0E23029F4E881A981BA812ED10BC0BF
:100E9A00E33049F4E981FA8178D0AA81E0919E0190
:100EAA00F0919F01099524960895E0E0EA93089548
:100EBA00A0E04CCFAA931A9308958DE08A95F1F792
:100ECA000895939AFADFE0E08299E1E00895AA93FF
:100EDA009598E981E062AE2F73DAA88171CA959A72
:100EEA008BE18A95F1F70895A8816ACA69DAA8E4BC
:100EFA000895E0E1EA930895EA93AFE091CAF0E039
:100F0A00ED93FC9375CAE981E0300895E881F0E039
:100F1A000895AFEFB0E0D6D0EA1BFB0B0895EA9331
:100F2A00E1E0EA93A0E007CBFA93EA93A0EAB1E002
:100F3A0019DFA0EAB1E0FBCEE695E695E6950895BD
:100F4A00F0E0EA0FFB1F0895AE2F7ECBE05CFD4F69
:100F5A000895AEE3B2E0ED91FD913196FE93EE93E2
:100F6A003197F4CFBA93AA930895EC81FD8108953D
:100F7A00E0938701F09388010895E0939C01F09330
:100F8A009D010895E0E0F0E00895FA93EA93089548
:100F9A00F0E0AE0FBF1F0895F0E088D00895EE8309
:100FAA00FF830895EC85EA93EF81F8853196EF8304
:100FBA00F8873197EADFA0E05BCF0A93A889089502
:100FCA001F5FEE850895EC85EA93EF81F8853196E7
:100FDA00EF83F8873197089566277727DF01CB01DA
:100FEA002DCF5A93AA8503CF0A930395E889EA93EA
:100FFA005A9308955E2FEC85EA93AF81B8858827C6
:10100A0099271CDF1E2E0895E095E1215E2BDBCF88
:10101A000A930395E889EA93EE85EA93E985FA85C6
:10102A003196E987FA873197D7CFEA934A93AD8504
:10103A00CCCB98DFA881B98169D00895A881B981FC
:10104A00089568D0E0918701F09188010895F80128
:10105A000F5F1F4F04900895E0918701F091880176
:10106A003196E4910895EA93E0918601EA9308950E
:10107A0089DF8BDFA9E0E0CB109639F080ED97E0AD
:10108A000197F1F7A8951197C9F70895EE230E2E47
:10109A00EA2F19F0EE0F0A94E9F70895EE230E2EBF
:1010AA00EA2F19F0E6950A94E9F70895FA9FF02DC8
:1010BA00EB9FF00DEA9FE02DF10D0895ED91FC9163
:1010CA00119708951B2EBF2FF12D1A2EAE2FE12D49
:1010DA000895E199FECFFF93FFB7F894AEBBBFBB6B
:1010EA00E09AEDB3FFBFFF910895E19B02C0A89576
:1010FA00FCCF9FB7F894AEBBBFBBE09A8DB3E8179D
:10110A0019F0EDBBE29AE19A9FBF089500240A16EE
:10111A000B0608955A934A933A932A931A930A9379
:10112A0008955D814C813B812A8119810881089546
:00000001FF
