:060000000C9473010C9446
:1000060000000C9400000C949F010C9400000C94CA
:10001600E4010C9400000C9400000C9400000C9475
:1000260000000C9400000C94B0010C9400000C9499
:1000360000000C9400000C9400000C9400000C943A
:1000460000000C9400000C9400000C9400000507BE
:100056002060000000000000005F000000070007AD
:1000660000147F147F14242A7F2A12231308646243
:1000760036495522500005030000001C22410000AD
:1000860041221C00082A1C2A0808083E08080050BD
:10009600300000080808080800303000002010086A
:1000A60004023E5149453E00427F400042615149AB
:1000B600462141454B311814127F102745454539D5
:1000C6003C4A494930017109050336494949360612
:1000D6004949291E00363600000056360000000841
:1000E600142241141414141441221408000201515C
:1000F6000906324979413E7E1111117E7F494949EF
:10010600363E414141227F4141221C7F49494941B6
:100116007F090901013E414151327F0808087F00ED
:10012600417F41002040413F017F081422417F402A
:100136004040407F0204027F7F0408107F3E414119
:10014600413E7F090909063E4151215E7F09192971
:1001560046464949493101017F01013F4040403F40
:100166001F2040201F7F2018207F6314081463037C
:1001760004780403615149454300007F414102046C
:1001860008102041417F0000040201020440404063
:100196004040000102040020545454787F484444EF
:1001A600383844444420384444487F38545454181A
:1001B600087E090102081454543C7F0804047800A0
:1001C600447D40002040443D00007F10284400410B
:1001D6007F40007C041804787C0804047838444482
:1001E60044387C14141408081414187C7C0804047D
:1001F600084854545420043F4440203C4040207C4E
:100206001C2040201C3C4030403C44281028440C14
:100216005050503C4464544C4400083641000000A1
:100226007F0000004136080002010204027F4141BE
:10023600417F1027E80364000A0001000010000156
:1002460010000100000103070F1F3F7FFF00890018
:10025600526F626F74696300464F52007374617225
:1002660074657273004449592D48555300415F4CDB
:100276003A00415F523A00445F4C3A00445F523ABA
:10028600002D2D204449592D485553202D2D000071
:1002960001002D4E414E00494E460000010005006A
:1002A6005402080060025602040068025E02090059
:1002B6006C026202080075026B0205007D02730281
:1002C600050082027802050087027D0205008C0285
:1002D60082020E009102870201006403960200006A
:1002E600F894EE27ECBBF1E0F5BFE5BF8DE0A2E0A8
:1002F600BB27ED938A95E9F780E098E0A0E6ED93B9
:100306000197E9F7E2EAF2E085919591009761F0AD
:10031600A591B59105901590BF01F00105900D923C
:100326000197E1F7FB01F0CFEFE5EDBFE8E0EEBFA7
:10033600C0E6D2E00C94D603AA93BA93EA93FA9352
:10034600EFB7EA93A0ECB2E00E94B209E991EFBFE1
:10035600F991E991B991A99118950A921A92FA928E
:100366006A937A938A939A93AA93BA93EA93FA939F
:10037600EFB7EA93ECE9E2BFA091C202B091C302E3
:10038600119789F4F60131966F01C09B02C0C0989F
:1003960001C0C09AC19B02C0C19801C0C19AA4E61F
:1003A600B0E00E948F0AE991EFBFF991E991B99106
:1003B600A9919991899179916991F99019900990EA
:1003C6001895EA93FA93EFB7EA93ECE9E4BDF501E1
:1003D60031965F01E8ECF0E0EA15FB0511F4AA247A
:1003E600BB24E091BC02F091BD02AE16BF0614F428
:1003F600DC9A01C0DC98E091BE02F091BF02AE1615
:10040600BF0614F4DD9A01C0DD98E991EFBFF991BA
:10041600E99118952897ECEFEABBEFECEBBBEBE123
:10042600E7BBE4E8E8BBE0E6E4BBE0E4E5BBE0EF1D
:10043600E1BBEFE0E2BBE2E0E3BFECE9E2BFE0E014
:10044600ECBFE1EAEFBDE3E8EEBDE0E0EDBDECBDFB
:10045600E7BDE6BDEBBDEABDE9BDE8BDE2BDE2E054
:10046600E5BDECE9E4BDE0E0E3BDE1E4E9BFEBB7FF
:10047600E062EBBFE0E0E5BFE0E4E4BFE0E2EABF54
:10048600E0E0EAB9E0E8E8B9E0E0E0BFE6B9EDB9F6
:10049600E6BFE4E5F0E0E883F983E0E0EA83EB8396
:1004A600EC83ED83EE81EC7FE160EE83E37EEC602E
:1004B600EE83EF81E078E263EF83DE010E9446057A
:1004C60078940E94B809A0E6B2E00E941509ECE112
:1004D600EA93ADE00E942509A8E6B2E00E9415095C
:1004E600E3E2EA93A8E10E942509ACE6B2E00E94A5
:1004F6001509E9E1EA93A8E20E942509A5E7B2E019
:100506000E941509A8EEB3E00E948F0A2896089566
:10051600AA931A9310E01830A0F4E981E07811F458
:10052600DF9801C0DF9A8DE08A95F1F7E981EE0F39
:10053600E9830E94BD09A981EA2BE983DA981F5F46
:10054600EACFE981188137C01A930A9310E000E0D8
:10055600083050F48DE08A95F1F7110F0E94BD091D
:100566001E2BDA980F5FF4CFE12F099119910895A8
:10057600DB9A88E795E00197F1F7DB98DE9A089514
:100586000E94C50915C00E94C509C2DFA881C0DF47
:10059600A881BEDFA881BCDFA8810AC00E94C50968
:1005A600B7DFA8E4B5DFA8E4B3DFA8E4B1DFA8E4C9
:1005B600AFDF0E94CB0922960895AA93DE980E9487
:1005C600CB090C94CD05AA93DE98E3E0EA93A3E069
:1005D600D7DFDE9A8BE18A95F1F7DE98EAE0EA93B7
:1005E600AC81D1DFE0E1EA93AC81CDDFEBE0EA93C9
:1005F600AB810E94D309AB81D1DFECE0EA93AA81FB
:100606000E94D309AA81CADFEDE0EA93A9810E947C
:10061600D309A981C3DF24960895E0E0EA93AFE108
:10062600AFDFDB9A08958BE18A95F1F7E0E0EA9374
:10063600AFE1A6DFE7E0EA93AAE7A2DFEDE1EA93FE
:10064600A4E09EDFECE10E94D809E5E0EA93A2E08F
:1006560097DF5A924A92E0916203EA93A09163036C
:10066600B2DFE2E00E94D809E1E00E94D809E4E0A6
:10067600EA93A0E085DF0895DB98DE9A8BE18A9500
:10068600F1F7DE98A1E644DF8BE18A95F1F75CDFAE
:10069600F0E0E0935A03F0935B0356DFACE5B3E07A
:1006A600F0E0ED93FC9350DFAEE5B3E0F0E0ED93C0
:1006B600FC934ADFA0E6B3E0F0E0ED93FC93DE9A0C
:1006C600DB9AE7E0EA93AEE75BDFA2EE76DF08951A
:1006D600AA93EA81F0E0E130A0E0FA07C1F4E981EB
:1006E600E03051F4E03011F4969801C0969AE88112
:1006F600F0E0F9BDE8BD26C0E981E03011F4969836
:1007060001C0969A0E94DC09F9BDE8BD1BC0E23023
:10071600A0E0FA07B9F4E981E03051F4E03011F4D1
:10072600979801C0979AE881F0E0FBBDEABD0AC040
:10073600E981E03011F4979801C0979A0E94DC098C
:10074600FBBDEABD23960895E1E0EA93E0E00E944E
:10075600E5091DC0E1E0EA9314C0E1E0EA93E0E0B8
:10076600EA93A0E0B5DFE2E0EA93E0E0EA93A0E0F6
:1007760010C0E1E0EA930E94E50909C0E1E0EA93CE
:10078600E0E0EA93A8ECA4DFE2E0EA93E1E0EA9392
:10079600A8EC9EDF0895C398C49A0895C39A01C031
:1007A600C398C498089536DE3EDFE2DEC098C19A4B
:1007B6000E94B8090E94CF05AD9880990AC0C19BD6
:1007C60002C0C19801C0C19AC09B02C0C09801C0B6
:1007D600C09A23DFC899C7C04FDF0E94B809ADE7AA
:1007E600B2E00E941509EEE10E94ED09E0915A037C
:1007F600F0915B030E94F109EDE20E94ED09A2E887
:10080600B2E00E941509EBE40E94ED09E0915C0359
:10081600F0915D030E94F109E0E00E94FB09A7E860
:10082600B2E00E941509EEE10E94FB09E0915E0329
:10083600F0915F030E94F109EDE20E94FB09ACE82A
:10084600B2E00E941509EBE40E94FB09E091600307
:10085600F09161030E94F109E0E0EA93A4E20E94AC
:100866002509A1E9B2E00E9415090E94FF09119726
:1008760009F46ADF0E94FF09129709F46BDF0E94F0
:10088600FF09139709F475DF0E94FF09149709F40D
:1008960075DFE0915A03F0915B03309709F45DDF51
:1008A6000E94040A119709F476DF0E94040A12973F
:1008B60009F474DF0E94040A139709F46FDF0E949B
:1008C600040A149709F467DFE0915C03F0915D0375
:1008D600309709F465DF0E94090A119711F40E9406
:1008E6000E0A0E94090A129711F40E940E0A0E942B
:1008F600090A139711F40E940E0A0E94090A149716
:1009060011F40E940E0AE0915E03F0915F033097A6
:1009160031F4E2E1F0E0E093BC02F093BD020E9404
:10092600150A119711F40E941A0A0E94150A1297C5
:1009360011F40E941A0A0E94150A139711F40E94D4
:100946001A0A0E94150A149711F40E941A0AE091D5
:100956006003F0916103309731F4E2E1F0E0E09357
:10096600BE02F093BF0229CFFFCFBA93AA93A991F3
:10097600B991E991F99130962AF4E095F09531967E
:100986006DE26D93E89480E197E20DD088EE93E0F6
:100996000AD084E6992707D08AE005D06E2F10D0BA
:1009A60066276C9308956627E817F90720F0639584
:1009B600E81BF90BC9F7662311F416F0089568943D
:1009C600605D6D9308950895AA931A93A99818E007
:1009D600FADFE981E07811F0AB9A01C0AB98E981C2
:1009E600EE0FE983F0DFAC9AEEDFAC98115081F799
:1009F600A99A18810C944A09AA93AA98A881E4DFB7
:100A0600C9C0AA93AA9AA881DFDFC4C0AA931A9381
:100A1600E981E695E695E6951E2FE4E5E19FF0016E
:100A2600DF01EA81F0E0EA0FFB1FE0936803F09331
:100A36006903E12F18810C949109AA93E981E06872
:100A4600AE2FDADFE981EA93A981E0DFE064AE2F19
:100A5600D3DF0C944A09AA93E981EA93A981EDDFD1
:100A6600E0916803F0916903E659FC4FE0810C942C
:100A76004A09AA930E94210A3197E659FC4FA88198
:100A8600A083BFDF87C0BA93AA930E94DF0AA19A08
:100A9600A99AA49AAC98A39AA29AA09AA898AAE00E
:100AA600B0E00E948F0AA89AEC81FD81309721F16F
:100AB600E681E3701E2FEC81FD81E681E695E695E1
:100AC600E7700E2FEC81FD81E781EF773E2FAC8139
:100AD600BD810E94B10AE093A302F093A40212968C
:100AE6000E94B10AE093B802F093B902AC81BD81CD
:100AF60014960E94B10A0DC010E003E032E3E0E074
:100B0600F0E0E093A302F093A402E093B802F0931E
:100B1600B902E093BA02F093BB02A1E26DDFE12FC6
:100B2600E460AE2F69DFE02FE061AE2F65DFE32FD3
:100B3600E068AE2F61DFA0E25FDFA1E022D0E1E056
:100B4600E0939F02E0E0E093A002E1E0E093A502DB
:100B5600E093A602E093A702EFEFE093A802E1E09C
:100B6600E093AF02E0EBF2E0FA93EA93EFEFEA9359
:100B7600A8E0B0E00E9431090FD0E1E00E94E60A49
:100B86005EC0AA93E881E03011F0ECE001C0E8E035
:100B9600AE2F32DF219608950E94DF0A30E0E09101
:100BA600A002E03009F03FEFE0E0EA93A0E045DF85
:100BB60008EF11E0F80101501040309719F0A32F0B
:100BC60058DFF8CF0E94B8090E94E60A0C94B009D3
:100BD600AA931A93ED81EA93AD813DDF1E2FE98139
:100BE600E73011F0E83039F4EB81EA93AA810E94EC
:100BF6004C09EB8308C0E33021F4EB81E095EB83ED
:100C060002C0E03021F4EA81E0951E2302C0E23002
:100C160029F4EA81AB81EA231E2B0EC0E13029F4C8
:100C2600EA81AB81EA231E2707C0E43029F4EA8172
:100C3600E095AB81EA2B1E23A12F1BDF1881269698
:100C46000895AA9323970E94DD0AA889A43548F43B
:100C5600AF85A03330F4AE85A03019F0AD85A03055
:100C660009F4D5C1EE85E887A889BB27EE85F0E0B3
:100C7600AE0FBF1FA535E0E0BE0720F0A889E4E56A
:100C8600EA1BEE872D85AF85BB27ED85F0E0AE0F1D
:100C9600BF1FD19720F0AF85E0E3EA1BED87A9855A
:100CA600A63009F05BC0EC85E13009F4B0C1E33051
:100CB60039F4E091BA02F091BB02309709F4A7C16A
:100CC6000885ED85E695E695E6953E2FE22FE770D9
:100CD60019F4AD852A17E9F0A02FBB27E32FF0E022
:100CE6000E94A90AAA85BB850E94240A26952695F4
:100CF6002695532F5F935F5FE22FAF91EA1748F077
:100D0600102FE12F1150E03019F00E94290AF9CF77
:100D1600F1CFAE850A1711F1EE85AA85BB85F0E005
:100D26000E94240AED85E77009F03F5F20E02F93CB
:100D36002F5FE32FAF91AE1788F41E851F931F5FB9
:100D4600E02FAF91AE1718F40E94290AF7CFEE856F
:100D5600AE81BF81F0E00E94240AE9CFEF85E770FB
:100D66003E2FED85E03009F452C1EA85FB85EE831E
:100D7600FF8310E00889303009F066C0AD85A830E1
:100D860008F45DC0E985E03011F0E33009F402C0F3
:100D9600E73009F402C0E83009F402C0E93009F48A
:100DA60002C0EA3021F40A93A88947DE04C0E6307F
:100DB60011F40E94360A1F931F5FEE85AF91AE179E
:100DC600B8F5A985A63069F40E943A0AFA93EA931F
:100DD6000E94210A3197E659FC4FA0810E9493098F
:100DE60026C0E985E93011F450E00EC0EA3011F46E
:100DF6005FEF0AC00E943A0A0E94430A5E2FE98505
:100E0600E73011F0E83021F40E94490A5E2F06C04F
:100E1600E33011F4509502C0E03019F4A52FF1DD4E
:100E260006C00E944D0AEFEFEA93AD85D1DEC3CF2F
:100E3600EF85E85FEF87ED85E850ED87DFC05D85DC
:100E460020E0E0E0ED8781C0E32FAD85AE0FA9304D
:100E560020F42D85E0E0ED8703C0E8E0E31B2E2FAC
:100E66003A93A22F0E9441094E2FE985E63029F5D3
:100E76000E94360A1F931F5FEE85AF91AE17E0F40E
:100E86000E94210A3197E659FC4FE081E423AE2FF8
:100E9600E32F0E94A10A0E94530AE32FA42F0E9467
:100EA600A10AE095E1215E2B0E943A0AFA93EA93A1
:100EB600A52F0E949309DECF2CC0E93011F450E033
:100EC60003C0EA30A9F45FEF0E94490AAE2FE32F70
:100ED6000E94990A5E2F1F931F5FEE85AF91AE1792
:100EE60030F40E944D0A4A93A0E072DEF4CF11C09E
:100EF6001F931F5FEE85AF91AE1758F40E945E0AEE
:100F0600AE2FE32F0E94990AEA934A93AD8560DEDD
:100F1600EFCFED85E03009F47AC0AD85A83028F42E
:100F2600ED85E21B5E2FE0E003C0532FED85E85010
:100F3600ED8710E0EF85E85FEF87E8E0E31B2E2FF3
:100F46000889EA85FB85EE83FF83E52FF0E0E65B03
:100F5600FD4F4491E985E63029F50E94360A1F9334
:100F66001F5FEE85AF91AE17E0F40E94210A31971C
:100F7600E659FC4FE081E423AE2FE22F0E94990A46
:100F86000E94530AE22FA42F0E94990AE095E121BC
:100F96005E2B0E943A0AFA93EA93A52F0E949309C0
:100FA600DECF2CC0E93011F450E003C0EA30A9F4DA
:100FB6005FEF0E94490AAE2FE22F0E94A10A5E2F20
:100FC6001F931F5FEE85AF91AE1730F40E944D0A56
:100FD6004A93A0E0FDDDF4CF11C01F931F5FEE859D
:100FE600AF91AE1758F40E945E0AAE2FE22F0E9410
:100FF600A10AEA934A93AD85EBDDEFCFE885AA8592
:10100600BB85F0E0EA0FFB1FEA87FB87AACE0E94AA
:10101600E40A619608950E946B0A1CF0E0E0F0E095
:1010260036C1A881B981A435E0E0BE071CF0E3E52E
:10103600F0E02DC1E881F9812AC10E946B0A1CF0FB
:10104600E0E0F0E024C1A881B981D0971CF0EFE27E
:10105600F0E01DC1E881F9811AC1BA93AA932397DA
:101066000E94720A8F01002E012A19F4E0E0F0E0D6
:101076005FC00E94790A0F820E94790A0E820E943E
:10108600790A0886EB85A885EA1718F4E0E0F0E00F
:101096004FC0F8010F5F1F4F5491A885BB27EE275D
:1010A600A50FBE1FEB85F0E0EA17FB0718F0E0E09E
:1010B600F0E03EC0EE81E695E695E6954E2FEE8190
:1010C600E77009F04F5FEF81E030A1F0A985BA859E
:1010D600EC93A885EB85EA1BF0E0DF01EF81F0E0F9
:1010E6000E94A90ADF01E42FF0E00E94A90AE00F9E
:1010F600F11F1EC09801E52FF0E00E0F1F1FA885F7
:10110600AF5FA887A150EB85AE1760F4F9012F5F9A
:101116003F4FA491B0E0E42FF0E00E94A90A0E0F21
:101126001F1FEDCFF901E491A985BA85EC93F8016B
:101136000E94E40A2C960895E0E0E093A102A091B3
:10114600A202BB270E947E0AF0E0AE0FBF1FE0910D
:10115600A602F0E0AE0FBF1F70DFE093A202089573
:10116600AA9321970E94720A309709F455C0AF815D
:10117600AA3009F44FC0EF81EA93DE0117966DDFBE
:10118600AF01309709F44AC0E091A502AE81EA0F9B
:101196003E2FA091A102BB27F0E0EA0FFB1F8F01B3
:1011A6000535E0E01E0718F0032F1127C5DFE09193
:1011B600A102EA93E091A202EA93E885EA930E94EB
:1011C6007E0AEA93E1E0EA935A934A93A7E039DD6F
:1011D600E091A102AE81EA0FEA93E091A202EA93BE
:1011E600E091A502EA930E947E0A0E94850AE09198
:1011F600A102EA93A091A2020E947E0AEA0FEA9354
:101206003A93E091A6020E94850AE4E5F0E0E01731
:10121600F10711F491DF02C00093A1020E94E40AD3
:1012260028960895BA93AA931A93A981BA81ED9143
:10123600A983BA831E2FE03019F0A12F91DFF5CFD5
:1012460018816CC0AA93A981BB27E5DEE093A102B1
:10125600A881BB27F2DEE093A20219C0BA93AA9333
:10126600B981A881109631F0FC81EB816A81619386
:101276001197E9F7EB81FC8125960895AA93E881F9
:10128600F0E0E65BFD4FA491E9810E94990A22965F
:101296000895AA931A93E981E73011F0EA3019F418
:1012A60010919F0209C0E93019F41091A00204C000
:1012B600E830A1F41091AF02E091A002E03049F0CD
:1012C600103019F0EFEF188129C0EA81E0951881F6
:1012D60025C0103019F4E0E0188120C0EA81188199
:1012E6001DC0BA93AA93EA81E13021F4E881F9811D
:1012F600E49114C0E23029F4A881B9810E94BC0AA5
:101306000DC0E33041F4A881B981E091B802F091B3
:10131600B902099503C0A881B981EC912396089575
:10132600AA93EB81E03029F4E881A981BA81EC9394
:1013360014C0E23031F4E881A981BA810E94C80A5A
:101346000CC0E33051F4E981FA81FA93EA93AA8159
:10135600E091BA02F091BB02099524960895ED91A9
:10136600FD913196FE93EE930895E0E0EA93A0E0B6
:101376000C942509DA9A8DE08A95F1F7E0E0C9998F
:10138600E1E00895AA93DE98E981E062AE2F089520
:10139600A8810E948B02DE9A8BE18A95F1F7089567
:1013A6000E94D102E0E1EA930895EA93AFE00C943B
:1013B600C302E881F0E0AFEFB0E00E94B50AEA1B95
:1013C600FB0B0895EA93A8EC0E946B03E2E0EA9314
:1013D600E0E00895EA93A0E00C942509FA93EA93D5
:1013E600A4ECB2E00E94B804A4ECB2E00C94150997
:1013F600EA93A4E10C942509A0915A03B0915B03EA
:101406000895A0915C03B0915D030895A0915E03D9
:10141600B0915F030895E7E1F0E0E093BC02F0933A
:10142600BD020895A0916003B09161030895E7E1BC
:10143600F0E0E093BE02F093BF020895A8E6B3E0A1
:101446008ECFEA0FFB1FEE83FF830895EC85EA93A8
:10145600EF81F8853196EF83F8873197FA93EA930F
:10146600A0E00C9493090A93A8890C940905EC85CD
:10147600EA93EF81F8853196EF83F88731970895DF
:1014860066277727DF01CB010C9474095A93AA8546
:101496000C944C090A930395E889EA935A930895A4
:1014A6005E2FEC85EA93AF81B885882799270E943D
:1014B60074091E2E08950A930395E889EA93EE852A
:1014C600EA93E985FA853196E987FA873197D8CF85
:1014D600BA93AA93A881B9810E94D90A08950E9455
:1014E600DD0AE091A302F091A4020895F8010F5FCE
:1014F6001F4F04900895E091A302F091A402319643
:10150600E4910895EA93E0E0EA93E0E0F0E0FA93EC
:10151600EA93A9E00C942406109639F080ED97E042
:101526000197F1F7A8951197C9F70895EE230E2EA6
:10153600EA2F19F0EE0F0A94E9F70895EE230E2E1E
:10154600EA2F19F0E6950A94E9F70895FA9FF02D27
:10155600EB9FF00DEA9FE02DF10D0895ED91FC91C2
:10156600119708951B2EBF2FF12D1A2EAE2FE12DA8
:101576000895E199FECFFF93FFB7F894AEBBBFBBCA
:10158600E09AEDB3FFBFFF910895E19B02C0A895D5
:10159600FCCF9FB7F894AEBBBFBBE09A8DB3E817FC
:1015A60019F0EDBBE29AE19A9FBF089500240A164E
:1015B6000B0608955A934A933A932A931A930A93D9
:1015C60008955D814C813B812A81198108810895A6
:00000001FF
