:0400000050C1FECF1E
:10000400FDCFFCCFFBCFFACFF9CFF8CFF7CF73C139
:10001400F5CFF4CFF3CFF2CFF1CFF0CFEFCFEECFD8
:10002400EDCF0507206000000000000000040A0472
:100034000007000700147F147F14242A7F2A122348
:100044001308646236495522500005030000001C61
:100054002241000041221C00082A1C2A0808083EEC
:100064000808005030000008080808080030300074
:100074000020100804023E5149453E00427F4000E2
:1000840042615149462141454B311814127F1027D2
:10009400454545393C4A494930017109050336490A
:1000A400494936064949291E0036360000005636AD
:1000B40000000008142241141414141441221408DA
:1000C400000201510906324979413E7E1111117E27
:1000D4007F494949363E414141227F4141221C7FAB
:1000E400494949417F090901013E414151327F0893
:1000F40008087F00417F41002040413F017F0814F0
:1001040022417F404040407F0204027F7F04081068
:100114007F3E4141413E7F090909063E4151215E2E
:100124007F09192946464949493101017F01013FA7
:100134004040403F1F2040201F7F2018207F631431
:100144000814630304780403615149454300007FA4
:100154004141020408102041417F000004020102D1
:1001640004404040404000010204002054545478AC
:100174007F484444383844444420384444487F3811
:1001840054545418087E090102081454543C7F083E
:1001940004047800447D40002040443D00007F106A
:1001A400284400417F40007C041804787C0804043F
:1001B4007838444444387C14141408081414187C03
:1001C4007C080404084854545420043F4440203C10
:1001D4004040207C1C2040201C3C4030403C4428B3
:1001E4001028440C5050503C4464544C440008368D
:1001F400410000007F0000004136080002010204B3
:10020400027F4141417F1027E80364000A00010096
:100214000010000110000100000103070F1F3F7FC1
:10022400FF007BB50000526F626F74696300464F34
:1002340052007374617274657273004449592D4895
:1002440055530025750044006C6566740072696737
:100254006874000001002D4E414E00494E460000D6
:10026400040004002602080060012A020400680158
:10027400320209006C013602080075013F020200D7
:100284007D014A0202007F013402050081014C0213
:100294000600860151020100390458020000F89456
:1002A400EE27ECBBF1E0FBBFEBBFE5BF8DE0A2E0C6
:1002B400BB27ED938A95E9F780E094E0A0E6ED93FF
:1002C4000197E9F7E4E6F2E085919591009761F0F2
:1002D400A591B59105901590BF01F00105900D927F
:1002E4000197E1F7FB01F0CFEFE5EDBFE4E0EEBFEE
:1002F400C0E6D1E033C1EA93EFB7EA93ECE9E2BF99
:100304007394E8ECE71509F47724761410F4909AC2
:1003140001C09098E991EFBFE99118952897E7EC0F
:10032400E7BBE0E0E8BBE0E2E4BBE0E0E5BBE9E733
:10033400E1BBEEEFE2BBE2E0E3BFECE9E2BFE1EAFE
:10034400EFBDEBE0EEBDE0E0EDBDECBDE7BDE6BD2D
:10035400EBBDEABDE9BDE8BDE2BDE5BDE4BDE3BD7D
:10036400E1E0E9BFE0E0E5BFEAB9E0E8E8B9E0E0F0
:10037400E0BFE6B9EDB9E6BFE6E2F0E0E883F98371
:10038400E0E0EA83EB83EC83ED83EE81EC7FEE83A4
:10039400E37EEC60EE83EF81E078EC63EF83DE01D3
:1003A4000ED37894EAE06E2EEAD6A0E04FD6A0E60B
:1003B400B1E03DD6ECE1EA93ADE048D6A8E6B1E081
:1003C40036D6E3E2EA93A8E141D6ACE6B1E02FD613
:1003D400E9E1EA93A8E23AD6A5E7B1E028D6A8EE87
:1003E400B3E0D9D722C6CED610E0183088F4E9811C
:1003F400E07811F4969801C0969AC7D6E981EE0F79
:10040400E983C7D6A981EA2BE98393981F5FEDCFCF
:10041400E981188154C622D810E000E0083038F48D
:10042400B4D6110FB6D61E2B93980F5FF7CFE12FDA
:10043400099119910895949A88E795E00197F1F745
:100444009498959A0895AA939598E981E062AE2FBD
:10045400A6D6A8D634C6AA939598A881C4DFA2D6F6
:100464001CC3AA939598E3E0EA93A3E0ECDF9AD641
:100474009598AAE294D69BD69AD694D69598A0E35A
:100484008ED695D694D68ED608C379D6AFE1DBDF67
:10049400949A0895A2EEDFDF8BE18A95F1F76FD687
:1004A400AFE1D1DFA2E0B0E076D783D6E1E185D633
:1004B400E5E0EA93A2E0C7DFA52DD3DFE2E07DD635
:1004C400E1E07BD6E4E07CD6BEDF08951A939498ED
:1004D40069D69598A1E687DF8BE18A95F1F79BDFD2
:1004E4001E2F959A949A65D6A2EEB5DFE12F199145
:1004F4000895AA93EA81F0E0E130A0E0FA07A9F4B4
:1005040062D649F460D611F4C09801C0C09A5ED690
:10051400FBBDEABD22C057D611F4C09801C0C09AF1
:1005240055D657D6FBBDEABD18C0E230A0E0FA07A5
:10053400A1F449D649F447D611F4C69801C0C69A25
:1005440045D6F9BDE8BD09C03ED611F4C69801C030
:10055400C69A3CD63ED6F9BDE8BDF2C5DFDE9ADFC9
:100564006ADF3DD62DD63FD6E1E02AD6C2DF97D248
:100574008CDF879967C0C79B02C0C79801C0C79A20
:10058400E4E11ED663D5A2DF4E2EE9EAF1E02FD6D0
:10059400E7E4F2E02CD6E42DFF27662777272DD752
:1005A40084E093D12896A9EAB1E041D5E4E1EA9345
:1005B400A4E14CD5E1E0E41551F411D6EA93AFEF90
:1005C40012D6DDD5AFEF95DFADE7B1E030D5E3E08E
:1005D400E41561F4E2E0EA93D2D5AFEF04D6E1E0AA
:1005E400EA93AFEF86DFAFE7B1E021D5EDE0E415A4
:1005F40049F4F5D5E5D5F7D5C2D5AFEF7ADFA1E853
:10060400B1E015D5EFE0E41551F4E9D5EA93AFEF85
:10061400EAD5E1E0D5D56DDFA6E8B1E008D5E7E19C
:10062400E41539F4E9E16E2EAAEFB0E0B4D6E7E0C0
:100634006E2E442039F4D3D5C3D5D5D5E1E0C0D549
:1006440058DF2DD295CFFFCFD5D508D7D6D5129662
:10065400CCD63097F1F0D1D5D3D58F01309761F056
:100664000230E0E01E0770F0F80131978F01AA8193
:10067400BB811496ED93FC93C0D51296C4D53197E3
:10068400AC81A083BAD5B1D6FF2312F0B6D5BBD5C1
:1006940005C0B3D5EFEFFFEFED93FC93E6D6EFC4BF
:1006A400A9D52697D7D610E0AC85BD85B2D5ED93F4
:1006B400FC93EA89FB893196EA8BFB8B3197E491B1
:1006C4002E2FE03009F4FBC0E12FE03031F4253265
:1006D40011F411E001C0A0D5F1C0E130A1F425323C
:1006E40011F49AD5EAC012E040E000E02D3211F492
:1006F40001E0E4C02B3211F44BE2E0C0203211F4EB
:1007040040E2DCC002C0E23039F450E013E02033B0
:1007140011F40068D3C003C0E33009F0CFC0203324
:1007240010F02A3308F007C0AAE05A9F502DE22F98
:10073400E0535E0FC3C0E22FE33639F474D576D5A7
:1007440072D5A481AA9376D5B8C0E33731F478D5AD
:1007540079D57BD596D41E2F08C0E03751F470D5D7
:1007640071D573D599D41E2F086002600F7730E0DD
:100774002DC0E43611F0E93611F4046002C0E53707
:1007840029F4EAE0F2E066D515E00BC0E83511F48F
:10079400086003C0E83709F090C0E4E1F2E05AD5FC
:1007A40014E002FF10C04CD54DD557D5AB85AA2314
:1007B40022F456D5FED551D54DE2403011F01F5FDD
:1007C40001C00B7F03C03CD53DD547D500FD10C00B
:1007D400151770F407FF08C002FF04C00B7F242F15
:1007E400115001C020E301C020E216D55150F0CFD2
:1007F400312F01FF15C0303091F003FF05C0EE81A9
:10080400FF81259127D505C0AE81BF812D91AE838F
:10081400BF8302D5503009F051503150ECCF44C061
:1008240020E3EE81FF81E5D5E887F987EE81FF813A
:10083400329610D5E885F98516D5AE17BF0740F076
:100844002F5FA885B9850CD5EA1BFB0B06D5F2CF23
:100854002A3328F003FF02C0295F01C0295D04FD8B
:1008640019C0213320F4A885B985119709F409C06A
:10087400531710F000FF01C011C020E207FF0AC0A7
:1008840020E3006102FF06C00B7F4A93D3D45030AB
:1008940009F05150C1D4503009F051503150A8855D
:1008A400B985129708F0BCCF00FF07C0503029F07B
:1008B4005150E0E2EA93BED4F9CF10E0FACEAC8511
:1008C400BD8593D5CED564960895FF92F82E2697CC
:1008D400C3D5CCD4309719F4EFEFFFEF1CC0DE0181
:1008E400169663D58D01C2D4B5D4E0E0E887E987D4
:1008F400DE011A965AD579D57AD41A930A93E6E288
:10090400F3E075D4DE011A96CBDE9F01AE81BF8180
:10091400E0E0EC93F901A7D52A96FF900895089595
:1009240031D4A99818E0FBDFE981E07811F0AB9AA3
:1009340001C0AB98E981EE0FE983F1DFAC9AEFDFF8
:10094400AC98115081F7A99A1881B9C3AA93AA98AF
:10095400A881E6DFA2C0AA93AA9AA881E1DF9DC07C
:1009640011D4E98188D41E2FE4E5E19FF001DF0171
:10097400EA8185D4E0933F02F0934002E12F18818D
:10098400DFC3AA93E981E0687ED4E981EA93A9816F
:10099400E7DFE06478D493C3AA93E981EA93A98159
:1009A400F0DFE0913F02F09140026FD4E08187C311
:1009B400AA936ED470D4A881A083CDDF6EC01AD45C
:1009C4004BD5A19AA99AA49AAC98A39AA29AA09A50
:1009D400A898AAE0B0E0DFD4A89A5FD43097D9F001
:1009E4005CD4E681E3701E2F58D4E681E695E69543
:1009F400E7700E2F52D4E781EF773E2FAC81BD8193
:100A0400F4D44ED4AC81BD811296EFD44ED4AC81D3
:100A1400BD81F6D308C010E003E032E3FAD340D43A
:100A2400F8D343D4F6D3E093A701F093A801A1E24D
:100A34008DDFE12FE46027D4E02FE06124D4E32F9D
:100A4400E06821D4A0E282DFA1E01FD0E1E0E093DE
:100A54008C01E0E0E0938D01E1E0E0939201E0930A
:100A64009301E0939401EFEFE0939501E1E0E093CB
:100A74009C01EDE9F1E0BBD3EFEFEA93A8E0B0E02D
:100A8400F1D20DD0E1E0EFD458C0AA93E881E03070
:100A940011F0ECE001C0E8E0F6D321960895DCD42F
:100AA40030E0E0918D01E03009F03FEF68D3A0E041
:100AB40068DF08EF11E0F80101501040309719F099
:100AC400A32F76DFF8CF5BD3A0E0C0D2CCD455C33C
:100AD40059D3ED81EA93AD815FDF1E2FE981E730C1
:100AE40011F0E83031F4EB81EA93AA81EAD2EB8386
:100AF40008C0E33021F4EB81E095EB8302C0E030E1
:100B040021F4EA81E0951E2302C0E23029F4EA814F
:100B1400AB81EA231E2B0EC0E13029F4EA81AB81BC
:100B2400EA231E2707C0E43029F4EA81E095AB816B
:100B3400EA2B1E23A12F3CDF188126960895AA9341
:100B4400239788D4A889A43548F4AF85A03330F41A
:100B5400AE85A03019F0AD85A03009F485C1EE85CD
:100B6400E887A889BB27EE85A5D3A535E0E0BE07B5
:100B740020F0A889E4E5EA1BEE872D85AF85BB2725
:100B8400ED8598D3D19720F0AF85E0E3EA1BED879C
:100B9400A985A63009F052C0EC85E13009F464C19E
:100BA400E33039F4E091A701F091A801309709F4FA
:100BB4005BC10885ED855FD33E2FE22FE77019F402
:100BC400AD852A17D1F0A02FBB27E32F77D34BD3C2
:100BD400EA0FFB1F3FD3269526952695532F5F9347
:100BE4005F5FE22FAF91EA1740F0102FE12F115011
:100BF400E03011F066D3FACFF2CFAE850A17F1F0E8
:100C0400EE8531D33CD326D3ED85E77009F03F5F01
:100C140020E02F932F5FE32FAF91AE1778F41E855A
:100C24001F931F5FE02FAF91AE1710F44AD3F8CF94
:100C3400EE85AE81BF8123D30DD3EBCFEF85E77073
:100C44003E2FED85E03009F40FC10AD303D310E041
:100C54000889303009F05AC0AD85A83008F451C075
:100C6400E985E03011F0E33009F402C0E73009F41B
:100C740002C0E83009F402C0E93009F402C0EA30E5
:100C840019F42AD37EDE04C0E63011F425D368DEDD
:100C94001F9325D3AF91AE1768F5A985A63039F413
:100CA40021D3A5D2F5D2F7D2A0814CD222C0E985B6
:100CB400E93011F450E00CC0EA3011F45FEF08C0E1
:100CC40011D319D35E2FE985E73011F0E83019F418
:100CD40017D35E2F06C0E33011F4509502C0E03004
:100CE40019F4A52F38DE05C00ED3EFEFEA93AD85D6
:100CF400EFDECECFEF85E85FEF87ED85E850ED8737
:100D0400AEC05D8520E0E0E0ED8767C0E32FAD85F0
:100D1400AE0FA93020F42D85E0E0ED8703C0E8E0B4
:100D2400E31B2E2F3A93A22FC3D14E2FE985E63031
:100D3400C1F4D2D215DE1F93D2D2AF91AE1780F494
:100D4400A7D2A9D2E081E423AE2FE32F3ED3E1D290
:100D5400E32FA42F3AD3E7D24AD2A52FF3D1EBCF76
:100D640022C0E93011F450E003C0EA3089F45FEFA7
:100D7400C7D2AE2FE32F21D35E2F1F93B0D2AF91F2
:100D8400AE1728F4C0D24A93A0E0A2DEF6CF0BC07F
:100D94001F93A5D2AF91AE1730F4C9D2AE2FE32F73
:100DA4000CD3D2D2F5CFED85E03009F45DC0AD852A
:100DB400A83028F4ED85E21B5E2FE0E003C0532F3A
:100DC400ED85E850ED8710E0EF85E85FEF87E8E018
:100DD400E31B2E2F088944D23DD2E52FF0E0E45ED8
:100DE400FD4F4491E985E630C1F476D2B9DD1F9315
:100DF40076D2AF91AE1780F44BD24DD2E081E4238A
:100E0400AE2FE22FDAD285D2E22FA42FD6D28BD204
:100E1400EED1A52F97D1EBCF22C0E93011F450E0E9
:100E240003C0EA3089F45FEF6BD2AE2FE22FCDD24C
:100E34005E2F1F9354D2AF91AE1728F464D24A9315
:100E4400A0E046DEF6CF0BC01F9349D2AF91AE1798
:100E540030F46DD2AE2FE22FB8D276D2F5CFE8853A
:100E640002D20DD2FAD1EDCEFCD26196089570D2A1
:100E740014F0CFD124C171D2A435E0E0BE071CF038
:100E8400E3E5F0E01CC1E881F98119C161D214F0F5
:100E9400C0D115C162D2D0971CF0EFE2F0E00FC1CF
:100EA400E881F9810CC1A6D123975AD28F01002E73
:100EB400012A11F4AED152C059D20F8257D20E82F8
:100EC40055D20886EB85A885EA1710F4A2D146C04E
:100ED400F8010F5F1F4F5491A885BB27EE27A50F7C
:100EE400BE1FEB85F0E0EA17FB0710F092D136C085
:100EF400EE81C1D14E2FEE81E77009F04F5FEF8193
:100F0400E03081F0A985BA85EC93A885EB85EA1BCE
:100F1400F0E0DF01EF81D2D1DF01E42FCFD1E00F88
:100F2400F11F1CC09801E52FF0E00E0F1F1FA885CC
:100F3400AF5FA887A150EB85AE1750F4F9012F5F7E
:100F44003F4FA491B0E0E42FB9D10E0F1F1FEFCF94
:100F5400F901E491A985BA85EC93F80182D22C9623
:100F64000895E0E0E0938E01A0918F01BB2703D2A6
:100F7400A1D1E09193019ED189DFE0938F0108957F
:100F8400AA932197EDD1309709F44CC0AF81AA30D0
:100F940009F446C0EF81EA93DE01179684DFAF01BE
:100FA400309709F441C0E0919201AE81EA0F3E2FDF
:100FB400A0918E01BB2763D18F010535E0E01E07A8
:100FC40018F0032F1127CDDFE0918E01DBD1E885E6
:100FD400EA93D1D1EA93E1E0EA935A934A93A7E0E2
:100FE400AEDDE0918E01AE81EA0FCCD1E0919201A9
:100FF400EA93C1D1EA93C3D0CAD1E0918E01EA93B6
:10100400A0918F01B8D1EA0FEA933A93E09193014A
:10101400EA93B5D0BCD1E4E5F0E0E017F10711F4B0
:10102400A0DF02C000938E011CD228960895E2D05E
:101034001A93A981BA81ED91A983BA831E2FE03056
:1010440019F0A12F9DDFF5CF18817AC0AA93A98149
:10105400BB270DDFE0938E01A881BB2717DFE09348
:101064008F012DC0C7D0B981A881109631F0FC81C1
:10107400EB816A8161931197E9F7EB81FC812596F5
:101084000895B8D0A991B991EE27FF276D916623F1
:1010940011F03196FBCF0895ADD0AA27BB27E99173
:1010A400F9910590002011F01196FBCFFD010895F0
:1010B400AA938CD0E45EFD4FA491E9817ED122965F
:1010C400089560D0E981E73011F0EA3019F4109105
:1010D4008C0109C0E93019F410918D0104C0E83085
:1010E400A1F410919C01E0918D01E03049F01030A1
:1010F40019F0EFEF188124C0EA81E095188120C02F
:10110400103019F4E0E018811BC0EA81188118C07E
:1011140071D0EA81E13021F4E881F981E49110C0D1
:10112400E23019F41AD175D10BC0E33039F415D17A
:10113400E091A501F091A601099502C00ED1EC91B0
:1011440023960895AA93EB81E03029F4E881A981DC
:10115400BA81EC9312C0E23029F4E881A981BA8102
:1011640064D10BC0E33049F4E981FA8140D0AA810B
:10117400E091A701F091A801099524960895E0E073
:10118400EA930895AA931A9308958DE08A95F1F746
:101194000895939AFADFE0E08299E1E0089523D973
:1011A400A88121C9959A8BE18A95F1F70895A881C0
:1011B400F6CFE7E0EA93AEE746C9EA93A1E043C974
:1011C400EA93A0E00895E981E0300895E881F0E031
:1011D4000895AFEFB0E016D1EA1BFB0B0895E2E0EF
:1011E400EA93E1E0089585D9E1E0EA930895FA935A
:1011F400EA930895BA93AA930895AA81BB810895A6
:101204001496F3D00895ED91FD913196FE93EE93EB
:101214000895E0E0F0E008952A93AD85BE85EF855A
:10122400F88909950895E889F98908953497E88B30
:10123400F98B0895AD85BE85EF85F88909950895E4
:10124400F2DFF4CFA889B989DBCFEE83FF83AE81C7
:10125400BF810895EE83FF830895EA87FB8708958D
:10126400EA85FB850895AA85BB850895DE011C9651
:101274009CD0BBD00895E695E695E6950895F0E0F8
:10128400EA0FFB1F0895AE2F61CBEF5BFD4F08956E
:10129400AFE3B2E0B8CF3197F8CFEC81FD81089588
:1012A400E0939001F09391010895E093A501F093E8
:1012B400A6010895F0E0AE0FBF1F0895F0E08DD0B1
:1012C4000895EC85EA93EF81F8853196EF83F887EA
:1012D40031978DDFA0E036CF0A93A88908951F5F68
:1012E400EE850895EC85EA93EF81F8853196EF83D6
:1012F400F8873197089566277727DF01CB0108CF58
:101304005A93AA85DECE0A930395E889EA935A9301
:1013140008955E2FEC85EA93AF81B88588279927D5
:10132400F7DE1E2E0895E095E1215E2BDBCF0A93B4
:101334000395E889EA93EE85EA93E985FA8531967F
:10134400E987FA873197D7CFEA934A93AD85C0CB23
:1013540051DFA881B9817AD00895A881B98108950F
:1013640079D0E0919001F09191010895F8010F5F17
:101374001F4F04900895E0919001F09191013196EE
:10138400E4910895EA93E0918F01EA93089541DF8F
:101394002EDFA9E0D4CB109639F080ED97E00197C9
:1013A400F1F7A8951197C9F708950024AF0DB01D62
:1013B4000895F195E195F0400895EE230E2EEA2F5D
:1013C40019F0EE0F0A94E9F70895EE230E2EEA2F92
:1013D40019F0E6950A94E9F70895FA9FF02DEB9F2A
:1013E400F00DEA9FE02DF10D0895ED91FC91119718
:1013F40008950590F491E02D08957A936A93FA93F1
:10140400EA9308951B2EBF2FF12D1A2EAE2FE12D36
:101414000895E199FECFFF93FFB7F894AEBBBFBB2D
:10142400E09AEDB3FFBFFF910895E19B02C0A89538
:10143400FCCF9FB7F894AEBBBFBBE09A8DB3E8175F
:1014440019F0EDBBE29AE19A9FBF089500240A16B1
:101454000B0608955A934A933A932A931A930A933C
:1014640008955D814C813B812A8119810881089509
:00000001FF
